S016000057656263616D4669726D776172652E7372656382
S214400000F038002009174000D1174000D1174000B3
S214400010D1174000D1174000D11740000000000023
S214400020000000000000000000000000D117400063
S214400030D117400000000000D1174000D117400003
S214400040D1174000D1174000D1174000D1174000CB
S214400050D1174000D1174000D117400000000000E3
S214400060D1174000D11740000000000005064000B0
S2144000701D0640000000000095124000D1174000C9
S2144000800000000000000000D1174000D1174000DB
S214400090D1174000D1174000D1174000D11740007B
S2144000A0D1174000D11740000000000000000000BB
S2144000B000000000D1174000D1174000D117400083
S2144000C0D1174000D1174000D117400010B5054C5D
S2144000D0237833B9044B13B10448AFF300800123AF
S2144000E0237010BD3C04002000000000382740006C
S2144000F00C4B43B10C480D4910B5AFF300800C488B
S214400100036823B910BD0A48036833B97047094BE2
S214400110002BF7D0BDE810401847064B002BF5D013
S214400120184700BF00000000382740004004002069
S214400130382740000000000080B489B000AFF86067
S214400140B9607A60BB681A017B689A4202D810236D
S214400150FB6101E00823FB617B68DA00FB69B96854
S21440016001FB03F35B081A44FB69B96801FB03F320
S214400170B2FBF3F3BB61BB69DB087B61BB6903F091
S21440018007033B617B69002B03D07B69B3F5803F57
S21440019001D301230FE0FB69082B05D1FB685B68A0
S2144001A043F40022FB685A603B691A047B691A4391
S2144001B0FB681A62002318462437BD4680BC704749
S2144001C080B582B000AF786078680F4B98477B6800
S2144001D000225A607B6800225A627B6800229A623C
S2144001E078680A4B98477868094B98477868094B6F
S2144001F098477868084B98477868084B984700BFF8
S2144002000837BD4680BD00BF71044000FD02400077
S2144002102D0340008F034000C3034000A903400065
S21440022080B584B000AFF860B9607A60F8681A4B61
S21440023098471A4B00221A60BB68002B09D0BB684F
S2144002401B687A681946F868154B98470346002B92
S21440025001D001231BE0BB685A68BB689B681A4301
S214400260BB681B691A43BB68DB681A430B4B1B68A9
S21440027013430A4A1360094B1B68084A1360FB681D
S2144002805A68064B1B681A43FB685A600023184698
S2144002901037BD4680BD00BFC10140005804002055
S2144002A03901400080B584B000AFF860B9607A602C
S2144002B07A68B968F8680A4B98470346002B01D01D
S2144002C0012308E0FB685B6823F00F0343F002025B
S2144002D0FB685A60002318461037BD4680BD00BFF5
S2144002E02102400080B483B000AF78607B68402233
S2144002F01A6000BF0C37BD4680BC704780B483B0E0
S21440030000AF78607B6888221A6000BF0C37BD4615
S21440031080BC704780B483B000AF78607B681022A2
S2144003201A6000BF0C37BD4680BC704780B483B0AF
S21440033000AF78607B6824221A6000BF0C37BD4649
S21440034080BC704780B483B000AF786039607B680B
S2144003503A689A6000BF0C37BD4680BC704780B490
S21440036083B000AF786039607B683A68DA6000BF77
S2144003700C37BD4680BC704780B483B000AF786011
S2144003807B685B6918460C37BD4680BC704780B4B6
S21440039083B000AF78607B684FF480721A6000BF0D
S2144003A00C37BD4680BC704780B483B000AF7860E1
S2144003B07B684FF400321A6000BF0C37BD4680BCE5
S2144003C0704780B483B000AF78607B684FF40022FB
S2144003D01A6000BF0C37BD4680BC704780B483B0FF
S2144003E000AF7860396000BF7B685B6903F002034A
S2144003F0002BF9D03B68C3F308027B68DA61002320
S21440040018460C37BD4680BC7047000080B582B0A9
S21440041000AF7860396007E03B685A1C3A601B784A
S21440042019467868044B98473B681B78002BF3D1F5
S21440043000BF0837BD4680BDDD03400080B483B0B2
S21440044000AF786039607B685B6903F00103002B7E
S21440045001D1012306E07B689B69C3F308023B6831
S2144004601A60002318460C37BD4680BC7047000013
S21440047080B483B000AF78607B68044AC3F8E42059
S21440048000BF0C37BD4680BC704700BF0041535587
S21440049080B584B000AF7860396078682C4B984758
S2144004A0F86078682B4B98470246FB681340FB6021
S2144004B0FB68002B3CD00023BB6034E0264ABB6878
S2144004C01B0113441A683B689A4226D1224ABB68ED
S2144004D01B01134404331A68FB681340002B1CD0DE
S2144004E01D4ABB681B0113440C331B681A49BA6883
S2144004F012010A4410681849BA6812010A440432C4
S214400500126811469847144ABB681B0113440433CB
S2144005101B68DB43FA681340FB60BB680133BB6073
S214400520BB68062B03D8FB68002BC7D100E000BF92
S2144005300A4B1B68002B07D0094B1B68002B03D0C7
S214400540074B1B687868984700BF1037BD4680BD8C
S214400550630C4000790C40005C040020E00400205E
S214400560D004002080B586B000AFF860B9607A60ED
S2144005703B60214B1B68062B01D9012338E0002342
S214400580FB7511E0FB7D1B011C4A13443B613B6934
S2144005901A68BB689A4204D13B695A687B689A429B
S2144005A008D0FB7D0133FB75FA7D134B1B689A42DE
S2144005B0E8D900E000BF3B69BA681A603B697A68D0
S2144005C05A603B693A689A603B693A6ADA60FA7DF3
S2144005D0094B1B6801339A4204D1074B1B68013311
S2144005E0054A13603A687968F868054B98470023CF
S2144005F018461837BD4680BDCC0400205C04002059
S214400600C50B400080B500AF0B210248024B98470F
S21440061000BF80BD000E0E409104400080B500AF84
S2144006200C210248024B984700BF80BD00100E4088
S2144006309104400080B483B000AF78607B684FF48C
S21440064000425A6000BF0C37BD4680BC7047000071
S21440065080B582B000AF78607B68072B31D801A2A6
S21440066052F823F0C1064000850640008D06400043
S214400670950640009D064000A5064000AD06400099
S214400680B70640000020114B98471AE001200F4B58
S214400690984716E000200E4B984712E010200C4B6F
S2144006A098470EE020200A4B98470AE03E2100205B
S2144006B0084B984705E03E210120064B984700E04E
S2144006C000BF00BF0837BD4680BD00BFE50E4000F6
S2144006D0510F4000C10F400080B582B000AF786037
S2144006E07B68072B26D801A252F823F00D0740005E
S2144006F01107400011074000230740002307400031
S214400700230740002307400023074000012312E050
S2144007100B4B98470346002B14BF01230023DBB244
S21440072009E0084B98470346002B14BF01230023DB
S214400730DBB200E0002318460837BD4680BD00BF48
S2144007401D0F40003910400080B483B000AF786081
S2144007507B68072B25D801A252F823F07D0740007E
S21440076083074000890740008F07400093074000FA
S214400770970740009B0740009F0740004FF4FA430E
S21440078010E04FF400430DE04FF400430AE0084BFE
S21440079008E0084B06E0084B04E0074B02E0064B37
S2144007A000E0002318460C37BD4680BC704700BFAB
S2144007B000093D0000127A00001BB70080B582B0E9
S2144007C000AF0346FB7100BFFB791846054B9847C0
S2144007D0034683F00103DBB2002BF5D100BF083798
S2144007E0BD4680BDD906400080B586B000AFF860F3
S2144007F07A603B600B46FB72FB7A18460D4B984777
S21440080002467B68B2FBF3F37B617B693A6802FB86
S21440081003F37B613B68013B1A04074B13407A683D
S214400820D2B2134343F47C52FB681A6000BF1837B9
S214400830BD4680BD490740000000FF0780B582B036
S21440084000AF786039603B68002B08D1094B984769
S214400850094A7B681B6843F00053936205E0074BE8
S2144008609847054A7B681B68D36200BF0837BD4679
S21440087080BD00BF5110400000040E408110400073
S21440088080B582B000AF78607B68002B03D1054B03
S2144008909847034602E0044B9847034618460837F5
S2144008A0BD4680BD691040009910400080B582B0BA
S2144008B000AF0346FB71FB79033B042B08D8FB795A
S2144008C01846064B9847FB791846054B984700E074
S2144008D000BF00BF0837BD4680BD00BF5106400080
S2144008E0BD07400080B582B000AF786000BF786832
S2144008F0044B98470346002BF9D000231846083788
S214400900BD4680BD8108400080B500AF0620044B40
S2144009109847024613469B0013449B00184680BDEA
S2144009204907400080B500AF024B984703465B0836
S214400930184680BD0909400090B583B000AF114805
S214400940114B98470620114B9847381D1423012217
S21440095006210F4CA0473B1D002118460D4B9847DB
S21440096000200D4B984710200C4B98470C4B98474F
S2144009700C4B984703461846034B984700BF0C3726
S214400980BD4690BD000E270771194000AD084000D7
S214400990E90740003D084000E5084000650E40007D
S2144009A0D91740002509400080B485B000AFF860F4
S2144009B0B9607A607B68002B03D0FB68BA685A66D9
S2144009C002E0FB68BA681A6600BF1437BD4680BCB2
S2144009D0704780B487B000AFF860B9607A60FB6853
S2144009E07A685A64BB68B3F1C05F4AD0B3F1C05F5F
S2144009F008D8B3F1006F16D0B3F1805F2CD0002B2F
S214400A0069D064E0B3F1205F65D0B3F1205F03D8CE
S214400A10B3F1005F4AD05AE0B3F1405F5BD0B3F128
S214400A20605F58D053E0FB681B6F7B61FB681A6FB2
S214400A307B68D9437B690B401A40FB681A67FB68A2
S214400A405B6F7B61FB685A6F7B68D9437B690B4061
S214400A501A40FB685A673AE0FB681B6F7B617A680E
S214400A607B691A43FB681A67FB685B6F7B61FB68B0
S214400A705A6F7B68D9437B690B401A40FB685A67BC
S214400A8025E0FB681B6F7B61FB681A6F7B68D94368
S214400A907B690B401A40FB681A67FB685B6F7B619B
S214400AA07A687B691A43FB685A6710E0FB681B6FDD
S214400AB07B617A687B691A43FB681A67FB685B6FE1
S214400AC07B617A687B691A43FB685A6700BFFB689C
S214400AD07A685A6000E000BF1C37BD4680BC70474D
S214400AE080B584B000AFF860B9607A60B968F868DD
S214400AF0194B98477B6803F001031A46B968F868B3
S214400B00164B98477B6803F00A03002B03D0FB681C
S214400B10BA681A6202E0FB68BA685A627B6803F0F9
S214400B200203002B04D0FB68BA68C3F8802008E0B4
S214400B307B6803F00803002B03D0FB68BA68C3F851
S214400B408420FB68BA685A61FB68BA681A6000BFBE
S214400B501037BD4680BD00BF490C4000A909400083
S214400B6080B584B000AFF860B9607A603B60B96821
S214400B70F868124B9847BA69B968F868104B9847B6
S214400B803B68002B03D0FB68BA681A6502E0FB6836
S214400B90BA685A657B68002B03D0FB68BA681A634C
S214400BA002E0FB68BA685A63FB68BA681A61FB6879
S214400BB0BA681A6000BF1037BD4680BD490C400079
S214400BC0A909400080B485B000AFF860B9607A608B
S214400BD07B6803F01003002B20D0FB68BA68C3F88C
S214400BE0B0207B6803F02003002B04D0FB68BA6873
S214400BF0C3F8D42003E0FB68BA68C3F8D0207B680B
S214400C0003F04003002B04D0FB68BA68C3F8C0204A
S214400C1008E0FB68BA68C3F8C42003E0FB68BA681B
S214400C20C3F8B42000BF1437BD4680BC704780B4BC
S214400C3083B000AF786039607B683A681A6400BF5A
S214400C400C37BD4680BC704780B483B000AF786038
S214400C5039607B683A685A6400BF0C37BD4680BC32
S214400C60704780B483B000AF78607B68DB6C184612
S214400C700C37BD4680BC704780B483B000AF786008
S214400C807B689B6C18460C37BD4680BC704700009E
S214400C9090B587B002AF786039607868634B984704
S214400CA0F8603B6803F0F043B3F1005F67D0B3F100
S214400CB0005F09D8B3F1805F2BD0B3F1C05F43D05B
S214400CC0B3F1006F0AD0A9E0B3F1405F7ED0B3F134
S214400CD0605F7BD0B3F1205F6CD09FE07B6803F011
S214400CE01F03012202FA03F31A464FF00061F86828
S214400CF04F4B98477B6803F01F03012202FA03F329
S214400D0019463B6803F001031A46F868494B984772
S214400D1086E07B6803F01F03012202FA03F31A46BB
S214400D204FF08051F868424B98477B6803F01F03AA
S214400D30012202FA03F319463B6803F001031A4600
S214400D40F8683C4B98476BE07B6803F01F03012232
S214400D5002FA03F31A464FF0C051F868344B9847EE
S214400D607B6803F01F03012202FA03F319463B682F
S214400D7003F001031A46F8682E4B984750E07B680C
S214400D8003F01F03012202FA03F31A464FF0005104
S214400D90F868274B98477B6803F01F03012202FA46
S214400DA003F319463B6803F001031A46F868214BE3
S214400DB0984735E07B6803F01F03012202FA03F3ED
S214400DC03A681946F8681C4B984729E07B6803F058
S214400DD01F03012202FA03F319463B6803F06053EF
S214400DE0B3F1605F0CBF01230023DBB21A463B68B9
S214400DF003F00403002B14BF01230023DBB2184684
S214400E003B6803F00103002B14BF01230023DBB231
S214400E1000930346F868094CA04701E0002300E031
S214400E20012318461437BD4690BD00BF410E400012
S214400E30D3094000A9094000E10A4000610B400088
S214400E4080B485B000AF78607B685B0903F500131B
S214400E5003F207735B02FB60FB6818461437BD4617
S214400E6080BC704780B485B000AF78601C491C4B8E
S214400E701B6B23F070027B6813430B634FF40063D5
S214400E80FB6007E0FB68002B01D1012323E0FB68F1
S214400E90013BFB60124B9B6E03F00803002BF1D026
S214400EA00F4A0F4B1B6B23F0030343F002031363FD
S214400EB04FF40063FB6007E0FB68002B01D1012381
S214400EC009E0FB68013BFB60054B9B6E03F00803A3
S214400ED0002BF1D0002318461437BD4680BC70471F
S214400EE000040E4080B483B000AF78607B68012B6E
S214400EF007D1084A074B9B6843F0254343F48013C9
S214400F009360044B044A1A6000BF0C37BD4680BC51
S214400F10704700BF10140E40080000A580B400AF14
S214400F20094B5B6903F08003002B07D0074B9B6E91
S214400F3003F08003002B01D0012300E00023184675
S214400F40BD4680BC704700BF10140E4000040E40E3
S214400F5080B483B000AF7860184A184B1B6A43F4DD
S214400F605C1343F00803136200BF144B9B6E03F4FC
S214400F700033002BF9D01149104B1B6A23F45C1345
S214400F8023F070037A68134343F45C130B6200BF8C
S214400F900A4B9B6E03F40033002BF9D0074A074BED
S214400FA01B6A23F09B7323F4803343F45C13136271
S214400FB000BF0C37BD4680BC704700BF00040E40E3
S214400FC080B483B000AF786039607B68002B08D06F
S214400FD01649164B1B6A164A1A40164B13430B62A9
S214400FE01EE01249114B1B6A23F45C1323F00303E3
S214400FF03A68120292B2134343F45C1343F001037F
S2144010000B6200BF094B9B6E03F00103002BF9D027
S214401010064A064B1B6A43F09B7343F480331362C5
S21440102000BF0C37BD4680BC704700BF00040E4072
S214401030FCFFC8FE0200370180B400AF034B9B6E36
S21440104003F480331846BD4680BC704700040E400B
S21440105080B400AF034B4FF000529A6200BFBD46CB
S21440106080BC704700040E4080B400AF034B9B6EBC
S21440107003F002031846BD4680BC704700040E408D
S21440108080B400AF034B0022DA6200BFBD4680BC8E
S214401090704700BF00040E4080B400AF034B9B6E09
S2144010A003F004031846BD4680BC704700040E405B
S2144010B080B483B000AF78607B68222B01D90123CF
S2144010C02FE07B681F2B13D8184B9A6901217B6849
S2144010D001FA03F31A4001217B6801FA03F39A42AE
S2144010E01ED0124A01217B6801FA03F3136117E010
S2144010F07B68203B7B600D4BD3F8082101217B6841
S21440110001FA03F31A4001217B6801FA03F39A427D
S21440111006D0064A01217B6801FA03F3C2F8003183
S214401120002318460C37BD4680BC704700040E406E
S21440113080B483B000AF0346FB7197F90730002BAD
S2144011400BDB084997F907305B09FA7902F01F0272
S214401150012000FA02F241F8232000BF0C37BD46BA
S21440116080BC704700E100E080B483B000AF786098
S2144011707B68072B25D801A252F823F09D1140002A
S214401180A3114000A9114000AF114000B311400028
S214401190B7114000BB114000BF1140004FF4FA4366
S2144011A010E04FF400430DE04FF400430AE0084BD4
S2144011B008E0084B06E0084B04E0074B02E0064B0D
S2144011C000E0002318460C37BD4680BC704700BF81
S2144011D000093D0000127A00001BB70080B500AF42
S2144011E00620044B9847024613469B0013449B0038
S2144011F0184680BD6911400080B500AF024B984745
S21440120003465B08184680BDDD11400080B582B0BD
S21440121000AF78607868034B984700BF0837BD46F4
S21440122080BD00BFB110400080B48BB000AF786086
S2144012307B687B627B6A3B623B6AFB61FB695B095E
S214401240BB61BB6903F5001303F207735B027B6166
S2144012507B6A3B613B6903F01F03012202FA03F3FA
S214401260FB607B69DA6B7B6ABB60BB6803F01F037D
S214401270012101FA03F31340002B03D07B69FA687F
S2144012805A6302E07B69FA681A6300BF2C37BD4692
S21440129080BC704780B582B000AF0B480B4B984778
S2144012A078607B6803F48053002B09D008490648D1
S2144012B0084B9847064B1B68DBB21846064B9847C8
S2144012C000BF0837BD4680BD00400240790340005D
S2144012D0D40400203D0440002514400080B584B06E
S2144012E000AF786039600C4B98470023FB6007E0FE
S2144012F00A4AFB68134400221A70FB680133FB60FD
S214401300FB68B3F57A7FF3DB054B00221A6000BF1B
S2144013101037BD4680BD00BF51144000E404002095
S214401320D8040020B0B586B000AF4FF0006105206D
S2144013301C4B98474FF0006106201A4B98474FF0D9
S21440134000610820174B9847174B3C461D460FCD6B
S2144013500FC495E8030084E80300144B9847024600
S214401360134B1A600E20134B9847114B1A683B4696
S21440137019461148114B98474FF0FF310E48104B15
S21440138098470D480F4B98470B480F4B98470121FD
S21440139009480E4B98470E200D4B984700BF18370C
S2144013A0BD46B0BD910C4000CC264000F91140002F
S2144013B0DC0400200D12400000400240A502400020
S2144013C05F034000E502400015034000450340002F
S2144013D03111400090B583B002AF0B200B4B9847BD
S2144013E00B4B009370234FF480520B2109480A4C54
S2144013F0A0470B20094B98474FF480510548084BAF
S214401400984700BF0437BD4690BD00BFB1104000AE
S214401410DD124000000E0E406505400031114000D0
S2144014202F0C400080B483B000AF0346FB71064BE0
S2144014301B685A1C04490A600449FA79CA5400BF1A
S2144014400C37BD4680BC7047D8040020E40400201A
S21440145080B500AF05490648064B98470346002B23
S21440146002D01420044B984700BF80BDE4264000BD
S214401470E4040020A92140002912400080B582B033
S21440148000AF78607868034B984700BF0837BD4682
S21440149080BD00BFB110400080B500AF0B20034BAD
S2144014A098470C20014B984700BF80BD7D144000F4
S2144014B080B48DB000AF786039607B68FB623B6873
S2144014C0BB62FB6A7B627B6A5A09FB6A3B623B6A89
S2144014D003F01F03012101FA03F3FA61BB61BB6A03
S2144014E07B61FB693B613B6903F5001303F20773BD
S2144014F05B02FB607B6903F00803002B03D0FB68AC
S214401500BA695A6602E0FB68BA691A667B6903F0F4
S2144015101003002B04D0FB68BA69C3F8942003E09C
S214401520FB68BA69C3F890207B6903F02003002B60
S21440153003D0FB68BA691A6502E0FB68BA695A6567
S2144015407B6903F0C003002B03D0FB68BA691A62BC
S21440155002E0FB68BA695A627B6903F08003002B9D
S21440156004D0FB68BA69C3F8842003E0FB68BA6914
S214401570C3F880207B6903F00103002B06D0FB688C
S2144015801A6FBB691A43FB681A6706E0FB681A6F56
S214401590BB69DB431A40FB681A677B6903F00203AA
S2144015A0002B06D0FB685A6FBB691A43FB685A6724
S2144015B006E0FB685A6FBB69DB431A40FB685A6714
S2144015C000BF3437BD4680BC704780B48DB000AF96
S2144015D078600B46FB707B68FB62FB7887F82B30A5
S2144015E0FB6A7B627B6A3B623B6A5B09FB61FB6929
S2144015F003F5001303F207735B02BB6197F82B30C9
S214401600012B09D1FB6A7B617B6903F01F03012232
S2144016109A40BB691A610CE097F82B30002B08D132
S214401620FB6A3B613B6903F01F0301229A40BB699A
S2144016305A61FB6AFB60FB6803F01F0301229A4075
S214401640BB69C3F8A02000BF3437BD4680BC704796
S21440165080B48BB000AF78600B46FB707B687B62D3
S214401660FB7887F823307B6AFB61FB69BB61BB690B
S2144016705B097B617B6903F5001303F207735B022A
S2144016803B6197F82330002B09D07B6AFB60FB68F0
S21440169003F01F0301229A403B691A6308E07B6A05
S2144016A0BB60BB6803F01F0301229A403B695A6344
S2144016B000BF2C37BD4680BC7047000080B500AFE9
S2144016C00D4B9847012114200C4B984700211420BD
S2144016D00B4B984700210020084B984708210020D4
S2144016E0084B984701210720044B984700210720C4
S2144016F0034B984700BF80BD99144000CB1540006F
S21440170051164000B114400080B584B000AF274B5E
S214401710FB60274BBB60FA68BB689A420DD907E06E
S214401720BB681A1DBA60FA68111DF96012681A6023
S214401730BB68204A9342F3D320E0FA68BB689A42DB
S2144017401CD21C4A1A4BD31A7B60FA687B68134437
S214401750043BFB60BA687B681344043BBB600AE00A
S214401760BB681A1FBA60FA68111FF96012681A60DF
S2144017707B68043B7B607B68002BF1D100BF0E4B3F
S214401780BB6004E0BB681A1DBA6000221A60BB68E2
S2144017900A4A9342F6D30A4BFB600A4AFB689360B8
S2144017A0094B9847094B9847FEE700BF382740004B
S2144017B0000000203C0400203C040020F0080020EC
S2144017C00000400000ED00E0A91E4000A91A4000BD
S2144017D080B400AFFEE7000080B400AF5D4B1B6BEB
S2144017E003F00303032B00F2968001A252F823F085
S2144017F001184000211840006B1840006B1840004C
S214401800554B5B6903F08003002B04D0534B4FF4D9
S21440181000421A6080E0514B4FF4FA421A607BE077
S2144018204C4B1B6A03F08073002B03D04B4B4C4A47
S2144018301A6071E0494B4B4A1A60464B1B6A03F0EC
S2144018407003102B08D0202B0AD0002B00D00BE0C2
S214401850424B444A1A6007E0404B434A1A6003E052
S2144018603E4B3F4A1A6000BF56E03A4B1B6A03F0B5
S2144018708073002B03D0394B394A1A6019E0374B36
S214401880384A1A60334B1B6A03F07003102B08D09B
S214401890202B0AD0002B00D00BE0304B314A1A6088
S2144018A007E02E4B304A1A6003E02C4B2C4A1A6055
S2144018B000BF284B1B6B03F00303022B15D1254BAF
S2144018C09B6A1B0CC3F30A030133244A126802FBCB
S2144018D003F3224A13601F4B9B6ADBB21F4A12680F
S2144018E0B2FBF3F31D4A136016E01A4BDB6A1B0C7F
S2144018F0C3F30A030133194A126802FB03F3174A7B
S2144019001360144BDB6ADBB2144A1268B2FBF3F383
S214401910124A136000E000BF0E4B1B6B03F07003CF
S214401920702B08D10D4B1B68104AA2FB03235B08A3
S2144019300A4A13600AE0074B1B6B1B0903F00703B8
S214401940064A126822FA03F3044A136000BFBD46F3
S21440195080BC704700040E4010140E400C0000205F
S214401960001BB70000093D0000127A00ABAAAAAAE5
S21440197080B483B000AF78607B68184A934204D83E
S214401980174B4FF080621A6023E07B68154A9342FB
S21440199003D8134B144A1A601BE07B68134A9342E1
S2144019A003D80F4B124A1A6013E07B68114A9342E1
S2144019B003D80B4B104A1A600BE07B680F4A9342E1
S2144019C004D8074B4FF004221A6002E0044B0C4A3E
S2144019D01A6000BF0C37BD4680BC7047FF2C3101F3
S2144019E0000A0E40FF59620200010004FF8693037E
S2144019F000020004FFB3C40400030004FFE0F50542
S214401A000005000480B483B000AF78607B68072B85
S214401A1025D801A252F823F0391A40003F1A400058
S214401A20451A40004B1A40004F1A4000531A4000D7
S214401A30571A40005B1A40004FF4FA4310E04FF448
S214401A4000430DE04FF400430AE0084B08E0084B23
S214401A5006E0084B04E0074B02E0064B00E000239C
S214401A6018460C37BD4680BC704700BF00093D0095
S214401A7000127A00001BB70080B500AF0620044B6A
S214401A809847024613469B0013449B00184680BD69
S214401A90051A400080B500AF024B984703465B08E6
S214401AA0184680BD791A40002DE9F04F89B000AF46
S214401AB02D4B98472D482E4B98472E4B98472E4BEC
S214401AC098472E4B98472E4A07F10C0392E803009E
S214401AD083E8030007F1140300221A605A609A60F4
S214401AE0284B9847034619464FF000020B461446CB
S214401AF04FEA441B4BEAD36B4FEA431A53465C46C5
S214401B005B1A64EB02044FEA840949EA93794FEA88
S214401B10830843464C465B1844EB0204A2007A60B6
S214401B207A6842EA93727A609B003B60D7E9003459
S214401B301946224643F2AF634FF00004CD1842EBFD
S214401B40040628463146104C43F2B0624FF000037C
S214401B50A04703460C4618460C4B984708490C4885
S214401B600C4B9847BCE700BF3909400050140E4064
S214401B7035064000BD16400025134000D5134000F2
S214401B80F4264000951A4000991B400001000020B2
S214401B90004002400D04400053B94AB9002908BF2E
S214401BA000281CBF4FF0FF314FF0FF3000F07AB9ED
S214401BB0ADF1080C6DE904CE00F006F8DDF804E05F
S214401BC0DDE9022304B070472DE9F0478C460D4608
S214401BD00446089E002B51D18A4217466DD9B2FA68
S214401BE082FEBEF1000F0BD0CEF1200C01FA0EF5AE
S214401BF020FA0CFC02FA0EF74CEA050C00FA0EF43A
S214401C004FEA174A250CBCFBFAF81FFA87F90AFB7D
S214401C1018CC45EA0C4508FB09F3AB420AD9ED1946
S214401C2008F1FF3280F02381AB4240F22081A8F1D8
S214401C3002083D44ED1AA4B2B5FBFAF00AFB105573
S214401C4044EA054400FB09F9A14509D9E41900F125
S214401C50FF3380F00A81A14540F2078102383C44B8
S214401C60A4EB090440EA08400021002E61D024FA83
S214401C700EF4002334607360BDE8F0878B4207D9CA
S214401C80002E54D0002186E821000846BDE8F087A3
S214401C90B3FA83F1002940F08E80AB4202D38242F1
S214401CA000F2FA80841A65EB03050120AC46002E4C
S214401CB03FD086E81010BDE8F08712B90127B7FB81
S214401CC0F2F7B7FA87FEBEF1000F34D1EB1B3A0CA1
S214401CD01FFA87FC0121B3FBF2F8250C02FB1833F0
S214401CE045EA03450CFB08F3AB4207D9ED1908F16A
S214401CF0FF3002D2AB4200F2D1808046ED1AA3B24A
S214401D00B5FBF2F002FB105543EA05440CFB00FC21
S214401D10A44507D9E41900F1FF3302D2A44500F2E6
S214401D20B8801846A4EB0C0440EA08409DE73146CC
S214401D303046BDE8F087CEF1200405FA0EF307FAE8
S214401D400EF720FA04F83A0C25FA04F448EA030899
S214401D50B4FBF2F14FEA184502FB11441FFA87FC28
S214401D6045EA044501FB0CF3AB4200FA0EF409D9F0
S214401D70ED1901F1FF3080F08A80AB4240F2878057
S214401D8002393D44EB1A1FFA88F5B3FBF2F002FB2A
S214401D90103345EA034500FB0CF3AB4207D9ED1977
S214401DA000F1FF386FD2AB426DD902383D44EB1A92
S214401DB040EA01418FE7C1F1200722FA07F88B403D
S214401DC005FA01F448EA030320FA07FE4FEA134CEB
S214401DD0FD404EEA040EB5FBFCF94FEA1E440CFBF0
S214401DE019551FFA83F844EA054509FB08F4AC4246
S214401DF002FA01F200FA01FA08D9ED1809F1FF30AB
S214401E0043D2AC4241D9A9F102091D442D1B1FFA09
S214401E108EFEB5FBFCF00CFB10554EEA054400FB6D
S214401E2008F8A04507D9E41800F1FF3529D2A045A7
S214401E3027D902381C4440EA0940A4EB0804A0FB1A
S214401E4002894C45C6464D4615D312D056B1BAEB1C
S214401E500E0364EB050404FA07F7CB401F43CC405F
S214401E60376074600021BDE8F0871846F8E6904673
S214401E70E0E6C245EAD2B8EB020E69EB030501384C
S214401E80E4E72846D7E7404691E78146BEE7014665
S214401E9078E702383C4445E7084608E7A8F10208D8
S214401EA03D442BE7704700BF70B50F4E0F4D761B75
S214401EB0B61018BF002405D0013455F8043B9847A7
S214401EC0A642F9D10A4E0B4D761B00F01FFCB61009
S214401ED018BF002406D0013455F8043B9847A64264
S214401EE0F9D170BD70BD00BF1827400018274000CC
S214401EF020274000182740002DE9F0414FF0010E02
S214401F00744600254FF0FF362B198B4200EB060730
S214401F100DD23F5D10F803C0BC452DD21D460124AE
S214401F20A3EB060E2B198B4200EB0607F1D34FF0BE
S214401F300108C2F800E0444600254FF0FF372B1951
S214401F40994200EB070E0ED91EF804E010F803C0C5
S214401F50F44518D91D460124A3EB07082B199942CE
S214401F6000EB070EF0D80137701C874224BFC2F83A
S214401F7000803846BDE8F0810CD04FF0010E2E466A
S214401F8074467544C0E70BD04FF001082F464446D0
S214401F904544D4E7744512BF01341D460124B3E7D7
S214401FA0444512BF01341D460124C8E72DE9F04FD1
S214401FB0ADF2144D164605468B461046194603AA02
S214401FC01C46FFF799FF03AB81460DF20C4243F8DF
S214401FD0044F9342FBD14CB1631E721E04A812F804
S214401FE0011F40F8213013F1FF33F8D203994A46D7
S214401FF03144304600F064FA00286FD109F1FF33CF
S2144020000093F3188246019323468046544658462A
S2144020109A4608EB0A073A1A0021284400F000FACC
S214402020002856D1002F54D0EB1904AA13F8013CCF
S21440203052F823304BB124B1039A934201D2AAEB13
S2144020400203984400243846E3E74C4523460AF109
S214402050FF3E38BF4B46734513D208EB030216F8D3
S21440206003C0A85C84452A4406EB030106D02CE056
S21440207011F801CF12F8010F844526D1013373457C
S214402080F6D34C45009980F08980009B08EB03020C
S214402090019BA85C1B7898422A447FD1019804F1A2
S2144020A0FF3B06E010F801CD12F801EDF44503D1F0
S2144020B019464B1E9B45F5D101348C4270D8039C83
S2144020C03846A044AAEB0404A3E7C9F101029044B1
S2144020D0B7E700200DF2144DBDE8F08FA4EB0903DE
S2144020E04B4538BF4B46013309F1FF38039306EBA7
S2144020F0080358464FF0000ACB4699460AEB0407B9
S2144021003A1A0021284400F08BF90028E1D1002F2C
S214402110DFD0EB1904AA13F8013C52F82330A3BBD6
S214402120611E8B4515D20AEB0B0216F80B3015F8DC
S21440213002E09E452A4406EB0B005B4606D027E0AD
S21440214010F801CF12F801EFF44521D101338B424C
S214402150F6D3B8F1FF3F11D00AEB080299F8001009
S214402160AB5C99422A440FD14B4605E013F8010D6B
S21440217012F8011D884207D1B342F7D105EB0A0099
S2144021800DF2144DBDE8F08F039B9A443846B5E7F0
S214402190CBF1010292449A443846AFE749468BE772
S2144021A005EB080096E700BF0278002A00F00181A0
S2144021B02DE9F04F91F8008085B04446B8F1000F05
S2144021C016D0864601F1010C012703E013F8014BB7
S2144021D06CB19C46A24214BF002707F001071EF8C8
S2144021E0012F6346002AF1D19CF80030FBB917B1A5
S2144021F005B0BDE8F08F0E46054641460130ACEBD3
S214402200060400F08DF9074688B1012CF0D0281955
S214402210874294BFC11B01211F2C8B460BD92346F6
S21440222032463846FFF7C2FE05B0BDE8F08F0020C4
S21440223005B0BDE8F08F03AA21463046FFF75CFEA6
S2144022400399804602463144304600F039F900286A
S21440225057D108F1FF330093F318814605460193A2
S2144022605846B2466619321A0021384400F0D8F86B
S2144022700028DCD1002EDAD0C845434638BF4B464E
S2144022809C4212D95A191AF80310B85C81423A4453
S2144022900AEB030E06D02CE01EF8010F12F8011FC1
S2144022A0884226D101339C42F6D1C845009940F277
S2144022B08380009BEA18019BB85C1B7898423A449E
S2144022C07AD1019809F1FF3B06E010F801CD12F8EB
S2144022D001EDF44503D119464B1E5B45F5D109F196
S2144022E00109894557D8039B30461D44A4EB030992
S2144022F0B8E7C8F1010215441D444FF000093046C6
S214402300B0E7A4EB0803434538BF4346013308F122
S214402310FF39039306EB090358460025BB469A4609
S21440232067193A1A0021584400F07AF800287FF4DA
S2144023307EAF002F3FF47BAF444515D908EB05022E
S21440234016F808301BF8020098425A4406EB08017B
S214402350434606D023E011F801EF12F8010F8645F8
S2144023601DD101339C42F6D1B9F1FF3F12D005EBA7
S21440237009029AF800301BF8021099425A4414D1C8
S214402380534605E013F8010D12F8011D88420CD1A2
S214402390B342F7D15F46781905B0BDE8F08FC8F173
S2144023A0010215441D443846BAE7039B38461D448F
S2144023B0B6E70B7813B97047414690E70020704760
S2144023C0024B13B1024800F005B870470000000009
S2144023D0E1234000002301461A46184600F014B98F
S2144023E038B50A4C0A4D641BA4100AD004F1804349
S2144023F0013B05EB8305013C55F804399847002C12
S214402400F9D1BDE8384000F08BB900BF3027400016
S2144024102C274000704700BF704700BF00000000F8
S21440242001F0FF01102A2BDB10F0070F08D010F840
S214402430013B013A8B422DD010F0070F42B3F6D144
S214402440F0B441EA012141EA014122F007047FF05D
S21440245000070023F0E80256083C85EA010586EAB4
S214402460010685FA47F5A3FA87F586FA47F6A5FAF0
S21440247087F68EB9EED1F0BC01F0FF0102F00702FC
S21440248032B110F8013B013A83EA010313B1F8D1A7
S2144024900020704701387047002D06BF3546033888
S2144024A0073815F0010F07D1013015F4807F02BFC1
S2144024B0013015F4C03F0130F0BC0138704700BF12
S2144024C0032A70B422D940EA01039B0711D003784F
S2144024D00C78A3421DD10A44013105E010F8013FB3
S2144024E011F8014BA34214D19142F7D1002070BCA1
S2144024F070470D680668AE420C46034601F104017B
S21440250000F1040008D1043A032AF2D8002ADED1AA
S214402510ECE7181B70BC704721461846D7E700BF4B
S214402520C9B2002941D08207F0B467D00378002BA7
S21440253068D0994237D0431C04E013F8010B90B39F
S21440254081422FD09A071C46F7D1256841EA0123DD
S21440255043EA034383EA0506A6F10130A5F10132BA
S21440256020EA060022EA0502024312F0803F11D11B
S214402570204650F8046F83EA0607A7F10135A6F116
S214402580013225EA070522EA06022A4312F0803F76
S214402590EFD00446207818B905E014F8010F10B1C2
S2144025A08142FAD12046F0BC7047830724D0037896
S2144025B0002BF9D0431C03E002780133002AF3D005
S2144025C099071846F8D11968A1F1013222EA0102AA
S2144025D012F0803F08D153F8041FA1F1013222EADD
S2144025E0010212F0803FF6D01A78184642B110F831
S2144025F0013F002BFBD170470346E4E70446A4E7BF
S214402600184670471846CEE72DE9F8432C4D064647
S214402610286898460F469146FFF7FCFE294B1C68F3
S214402620D4F84831002B3ED05A681F2A1CDC02F1F1
S214402630010E76B103EB82010124C1F88890D3F8ED
S214402640880194402043022EC3F88801C1F80881CF
S21440265023D00232C3F804E0286843F82270FFF71C
S214402660DBFE0020BDE8F883174B0BB34FF4C87071
S214402670AFF300800346D8B1D4F848210260002169
S21440268041600A46C4F848014FF0010EC0F8881170
S214402690C0F88C11002EDCD0CCE7D3F88C110C435C
S2144026A0C3F88C41D5E704F5A673C4F84831BBE7B8
S2144026B02868FFF7B1FE4FF0FF30BDE8F88300BF53
S2144026C038040020082740000000000000C2010037
S2144026D0C0000000000800000000000000000000ED
S2144026E000000000556E6B6E6F776E20636F6D6DE9
S2144026F0616E640048656C6C6F0D0A000000000057
S214402700000000000000000010000020F8B500BFE8
S214402710F8BC08BC9E467047C1234000F10040000C
S214402720F8B500BFF8BC08BC9E467047CD004000D8
S20C40273098F4FF7F0100000051
S214402738BFF35F8F0138FBD17047000000093D00AA
S21440274800000000FC02002064030020CC030020A8
S214402758000000000000000000000000000000002C
S214402768000000000000000000000000000000001C
S214402778000000000000000000000000000000000C
S21440278800000000000000000000000000000000FC
S21440279800000000000000000000000000000000EC
S2144027A800000000000000000000000000000000DC
S2144027B800000000000000000000000000000000CC
S2144027C800000000000000000000000000000000BC
S2144027D800000000000000000000000000000000AC
S2144027E8000000000000000001000000000000009B
S2144027F80E33CDAB34126DE6ECDE05000B00000060
S214402808000000000000000000000000000000007B
S214402818000000000000000000000000000000006B
S214402828000000000000000000000000000000005B
S214402838000000000000000000000000000000004B
S210402B680000000000000000CC08002028
S8044017099B
