S016000057656263616D4669726D776172652E7372656382
S21440000000390020C11F4000892040008920400060
S21440001089204000892040008920400000000000E0
S21440002000000000000000000000000089204000A2
S21440003089204000000000008920400089204000C0
S21440004089204000892040008920400089204000C7
S21440005089204000892040008920400000000000A0
S214400060892040008920400000000000050940002B
S2144000701D09400000000000891A40008920400009
S2144000800000000000000000892040008920400059
S214400090892040008920400089204000C91840003F
S2144000A08920400089204000000000000000000039
S2144000B00000000089204000892040008920400040
S2144000C089204000892040008920400010B5054C1A
S2144000D0237833B9044B13B10448AFF300800123AF
S2144000E0237010BD3C04002000000000C8294000DA
S2144000F00C4B43B10C480D4910B5AFF300800C488B
S214400100036823B910BD0A48036833B97047094BE2
S214400110002BF7D0BDE810401847064B002BF5D013
S214400120184700BF00000000C829400040040020D7
S214400130C82940000000000080B487B000AFF860D7
S214400140B9607A60FA68BB689B0113447B617B693F
S21440015002221A607B694FF0FF329A627B691B6A03
S2144001607B697A685A6000BF1C37BD4680BC7047C2
S21440017080B483B000AF786039607A683B689B0192
S214400180134405221A6000BF0C37BD4680BC70473A
S21440019080B485B000AFF860B9607A60FA68BB6832
S2144001A09B0113441C337A681A6000BF1437BD465F
S2144001B080BC704780B487B000AFF860B9607A60A2
S2144001C0FA68BB689B0113447B617B697A685A6214
S2144001D000BF1C37BD4680BC704780B485B000AFBA
S2144001E0786039607A683B689B011344FB60FB6823
S2144001F01B6A18461437BD4680BC704780B48DB025
S21440020000AFF860B9607A603B6002233B61082328
S2144002107B612023BB618023FB61BB6BDB0B3B62B6
S2144002200023FB621AE0FB6A9B0007F1300213448E
S21440023053F8203CBA68B2FBF3F3BB62BB6A1B0CB4
S2144002407B62FA68BB6A9A4201D9002323E0FA68C7
S2144002507B6A9A4206D2FB6A0133FB62FB6A042B36
S214400260E1D900E000BFFB6A042B01D9002312E06D
S2144002707B68002B08D0FB6A9B0007F130021344D2
S21440028053F8202C7B681A603B68002B02D03B68F2
S214400290FA6A1A60012318463437BD4680BC704758
S2144002A080B483B000AF78607B6808221A607B68B1
S2144002B020221A607B6804221A6000BF0C37BD46B5
S2144002C080BC704780B584B000AF7860396000234A
S2144002D0FB607B684FF0FF329A627B681B6A7868E7
S2144002E00E4B984778680E4B98473B6859683B6872
S2144002F01B681A4678680B4B98470346012B01D17A
S2144003000123FB603B685B7A012B02D17B6840226D
S2144003101A60FB6818461037BD4680BD1D04400075
S214400320A10240002903400080B489B000AFF860C5
S214400330B9607A600023FB61BB68344A934201D9B6
S21440034001235DE0BB68324A934237D97B68314A25
S214400350A2FB03239B0B043B7B61BA682E4B1344E2
S2144003609B007A68B2FBF3F3043B3B6105E0FB6914
S2144003700133FB617B695B087B617B69FF2B09D995
S214400380FB69062BF3D905E0FB690133FB613B694A
S2144003905B083B613B69FF2B02D9FB69062BF3D90F
S2144003A07B69DAB23B691B029BB21A43FB691B04AA
S2144003B003F4E0231A43FB681A6120E0BB685B0045
S2144003C07A68B2FBF3F3043BBB6105E0FB6901339B
S2144003D0FB61BB695B08BB61BB69FF2B02D9FB694C
S2144003E0062BF3D9BB69DAB2BB691B029BB21A4330
S2144003F0FB691B0403F4E0231A43FB681A610023DD
S21440040018462437BD4680BC704700BF801A060099
S21440041000DC0500F11976050012FD3F80B483B07C
S21440042000AF78607B6880221A607B681B6B00BFD9
S2144004300C37BD4680BC704780B489B000AFF860CA
S214400440B9607A60BB681A017B689A4202D810236A
S214400450FB6101E00823FB617B68DA00FB69B96851
S21440046001FB03F35B081A44FB69B96801FB03F31D
S214400470B2FBF3F3BB61BB69DB087B61BB6903F08E
S21440048007033B617B69002B03D07B69B3F5803F54
S21440049001D301230FE0FB69082B05D1FB685B689D
S2144004A043F40022FB685A603B691A047B691A438E
S2144004B0FB681A62002318462437BD4680BC704746
S2144004C080B582B000AF786078680F4B98477B68FD
S2144004D000225A607B6800225A627B6800229A6239
S2144004E078680A4B98477868094B98477868094B6C
S2144004F098477868084B98477868084B984700BFF5
S2144005000837BD4680BD00BF71074000FD0540006E
S2144005102D0640008F064000C3064000A906400056
S21440052080B584B000AFF860B9607A60F8681A4B5E
S21440053098471A4B00221A60BB68002B09D0BB684C
S2144005401B687A681946F868154B98470346002B8F
S21440055001D001231BE0BB685A68BB689B681A43FE
S214400560BB681B691A43BB68DB681A430B4B1B68A6
S21440057013430A4A1360094B1B68084A1360FB681A
S2144005805A68064B1B681A43FB685A600023184695
S2144005901037BD4680BD00BFC1044000580400204F
S2144005A03904400080B584B000AFF860B9607A6026
S2144005B07A68B968F8680A4B98470346002B01D01A
S2144005C0012308E0FB685B6823F00F0343F0020258
S2144005D0FB685A60002318461037BD4680BD00BFF2
S2144005E02105400080B483B000AF78607B6840222D
S2144005F01A6000BF0C37BD4680BC704780B483B0DD
S21440060000AF78607B6888221A6000BF0C37BD4612
S21440061080BC704780B483B000AF78607B6810229F
S2144006201A6000BF0C37BD4680BC704780B483B0AC
S21440063000AF78607B6824221A6000BF0C37BD4646
S21440064080BC704780B483B000AF786039607B6808
S2144006503A689A6000BF0C37BD4680BC704780B48D
S21440066083B000AF786039607B683A68DA6000BF74
S2144006700C37BD4680BC704780B483B000AF78600E
S2144006807B685B6918460C37BD4680BC704780B4B3
S21440069083B000AF78607B684FF480721A6000BF0A
S2144006A00C37BD4680BC704780B483B000AF7860DE
S2144006B07B684FF400321A6000BF0C37BD4680BCE2
S2144006C0704780B483B000AF78607B684FF40022F8
S2144006D01A6000BF0C37BD4680BC704780B483B0FC
S2144006E000AF7860396000BF7B685B6903F0020347
S2144006F0002BF9D03B68C3F308027B68DA6100231D
S21440070018460C37BD4680BC7047000080B582B0A6
S21440071000AF7860396007E03B685A1C3A601B7847
S21440072019467868044B98473B681B78002BF3D1F2
S21440073000BF0837BD4680BDDD06400080B483B0AC
S21440074000AF786039607B685B6903F00103002B7B
S21440075001D1012306E07B689B69C3F308023B682E
S2144007601A60002318460C37BD4680BC7047000010
S21440077080B483B000AF78607B68044AC3F8E42056
S21440078000BF0C37BD4680BC704700BF0041535584
S21440079080B584B000AF7860396078682C4B984755
S2144007A0F86078682B4B98470246FB681340FB601E
S2144007B0FB68002B3CD00023BB6034E0264ABB6875
S2144007C01B0113441A683B689A4226D1224ABB68EA
S2144007D01B01134404331A68FB681340002B1CD0DB
S2144007E01D4ABB681B0113440C331B681A49BA6880
S2144007F012010A4410681849BA6812010A440432C1
S214400800126811469847144ABB681B0113440433C8
S2144008101B68DB43FA681340FB60BB680133BB6070
S214400820BB68062B03D8FB68002BC7D100E000BF8F
S2144008300A4B1B68002B07D0094B1B68002B03D0C4
S214400840074B1B687868984700BF1037BD4680BD89
S2144008509B0F4000B10F40005C040020E8040020DD
S214400860D004002080B586B000AFF860B9607A60EA
S2144008703B60214B1B68062B01D9012338E000233F
S214400880FB7511E0FB7D1B011C4A13443B613B6931
S2144008901A68BB689A4204D13B695A687B689A4298
S2144008A008D0FB7D0133FB75FA7D134B1B689A42DB
S2144008B0E8D900E000BF3B69BA681A603B697A68CD
S2144008C05A603B693A689A603B693A6ADA60FA7DF0
S2144008D0094B1B6801339A4204D1074B1B6801330E
S2144008E0054A13603A687968F868054B98470023CC
S2144008F018461837BD4680BDCC0400205C04002056
S214400900FD0E400080B500AF0B210248024B9847D1
S21440091000BF80BD000E0E409107400080B500AF7E
S2144009200C210248024B984700BF80BD00100E4085
S2144009309107400080B483B000AF78607B684FF486
S21440094000425A6000BF0C37BD4680BC704700006E
S21440095080B582B000AF78607B68072B31D801A2A3
S21440096052F823F0C1094000850940008D09400037
S214400970950940009D094000A5094000AD0940008A
S214400980B70940000020114B98471AE001200F4B52
S214400990984716E000200E4B984712E010200C4B6C
S2144009A098470EE020200A4B98470AE03E21002058
S2144009B0084B984705E03E210120064B984700E04B
S2144009C000BF00BF0837BD4680BD00BF1D124000B7
S2144009D089124000F912400080B582B000AF7860BE
S2144009E07B68072B26D801A252F823F00D0A400058
S2144009F0110A4000110A4000230A4000230A400022
S214400A00230A4000230A4000230A4000012312E044
S214400A100B4B98470346002B14BF01230023DBB241
S214400A2009E0084B98470346002B14BF01230023D8
S214400A30DBB200E0002318460837BD4680BD00BF45
S214400A40551240007113400080B483B000AF786008
S214400A507B68072B25D801A252F823F07D0A400078
S214400A60830A4000890A40008F0A4000930A4000EB
S214400A70970A40009B0A40009F0A40004FF4FA4302
S214400A8010E04FF400430DE04FF400430AE0084BFB
S214400A9008E0084B06E0084B04E0074B02E0064B34
S214400AA000E0002318460C37BD4680BC704700BFA8
S214400AB000093D0000127A00001BB70080B582B0E6
S214400AC000AF0346FB7100BFFB791846054B9847BD
S214400AD0034683F00103DBB2002BF5D100BF083795
S214400AE0BD4680BDD909400080B586B000AFF860ED
S214400AF07A603B600B46FB72FB7A18460D4B984774
S214400B0002467B68B2FBF3F37B617B693A6802FB83
S214400B1003F37B613B68013B1A04074B13407A683A
S214400B20D2B2134343F47C52FB681A6000BF1837B6
S214400B30BD4680BD490A40000000FF0780B582B030
S214400B4000AF786039603B68002B08D1094B984766
S214400B50094A7B681B6843F00053936205E0074BE5
S214400B609847054A7B681B68D36200BF0837BD4676
S214400B7080BD00BF8913400000040E40B9134000FA
S214400B8080B582B000AF78607B68002B03D1054B00
S214400B909847034602E0044B9847034618460837F2
S214400BA0BD4680BDA1134000D113400080B582B041
S214400BB000AF0346FB71FB79033B042B08D8FB7957
S214400BC01846064B9847FB791846054B984700E071
S214400BD000BF00BF0837BD4680BD00BF510940007A
S214400BE0BD0A400080B582B000AF786000BF78682C
S214400BF0044B98470346002BF9D000231846083785
S214400C00BD4680BD810B400080B500AF0620044B3A
S214400C109847024613469B0013449B00184680BDE7
S214400C20490A400080B500AF024B984703465B0830
S214400C30184680BD090C400090B583B000AF1148FF
S214400C40114B98470620114B9847381D1423012214
S214400C5006210F4CA0473B1D002118460D4B9847D8
S214400C6000200D4B984710200C4B98470C4B98474C
S214400C700C4B984703461846034B984700BF0C3723
S214400C80BD4690BD000E270729224000AD0B400010
S214400C90E90A40003D0B4000E50B40009D11400036
S214400CA091204000250C400080B485B000AFF8602D
S214400CB0B9607A607B68002B03D0FB68BA685A66D6
S214400CC002E0FB68BA681A6600BF1437BD4680BCAF
S214400CD0704780B485B000AFF860B9607A60FB6852
S214400CE0BA68C3F884207B685B004FF40042B2FBCE
S214400CF0F3F3013BC3F30D02FB68C3F88C2000BF3F
S214400D001437BD4680BC704780B487B000AFF860EB
S214400D10B9607A60FB687A685A64BB68B3F1C05FB2
S214400D204AD0B3F1C05F08D8B3F1006F16D0B3F124
S214400D30805F2CD0002B69D064E0B3F1205F65D093
S214400D40B3F1205F03D8B3F1005F4AD05AE0B3F165
S214400D50405F5BD0B3F1605F58D053E0FB681B6FD9
S214400D607B61FB681A6F7B68D9437B690B401A40EE
S214400D70FB681A67FB685B6F7B61FB685A6F7B6832
S214400D80D9437B690B401A40FB685A673AE0FB68D8
S214400D901B6F7B617A687B691A43FB681A67FB683E
S214400DA05B6F7B61FB685A6F7B68D9437B690B40FE
S214400DB01A40FB685A6725E0FB681B6F7B61FB683F
S214400DC01A6F7B68D9437B690B401A40FB681A67E9
S214400DD0FB685B6F7B617A687B691A43FB685A677E
S214400DE010E0FB681B6F7B617A687B691A43FB687F
S214400DF01A67FB685B6F7B617A687B691A43FB689E
S214400E005A6700BFFB687A685A6000E000BF1C372C
S214400E10BD4680BC7047000080B584B000AFF86027
S214400E20B9607A60B968F868194B98477B6803F0F0
S214400E3001031A46B968F868164B98477B6803F072
S214400E400A03002B03D0FB68BA681A6202E0FB680C
S214400E50BA685A627B6803F00203002B04D0FB6832
S214400E60BA68C3F8802008E07B6803F00803002BCC
S214400E7003D0FB68BA68C3F88420FB68BA685A6136
S214400E80FB68BA681A6000BF1037BD4680BD00BF19
S214400E90810F4000A90C400080B584B000AFF860D8
S214400EA0B9607A603B60B968F868124B9847BA698F
S214400EB0B968F868104B98473B68002B03D0FB682E
S214400EC0BA681A6502E0FB68BA685A657B68002B08
S214400ED003D0FB68BA681A6302E0FB68BA685A63D4
S214400EE0FB68BA681A61FB68BA681A6000BF1037B8
S214400EF0BD4680BD810F4000A90C400080B485B03F
S214400F0000AFF860B9607A607B6803F01003002B8E
S214400F1020D0FB68BA68C3F8B0207B6803F0200393
S214400F20002B04D0FB68BA68C3F8D42003E0FB6803
S214400F30BA68C3F8D0207B6803F04003002B04D087
S214400F40FB68BA68C3F8C02008E0FB68BA68C3F814
S214400F50C42003E0FB68BA68C3F8B42000BF143767
S214400F60BD4680BC704780B483B000AF78603960BF
S214400F707B683A681A6400BF0C37BD4680BC704731
S214400F8080B483B000AF786039607B683A685A6452
S214400F9000BF0C37BD4680BC704780B483B000AFFE
S214400FA078607B68DB6C18460C37BD4680BC704763
S214400FB080B483B000AF78607B689B6C18460C3773
S214400FC0BD4680BC7047000090B587B002AF7860E1
S214400FD039607868634B9847F8603B6803F0F043A5
S214400FE0B3F1005F67D0B3F1005F09D8B3F1805F1B
S214400FF02BD0B3F1C05F43D0B3F1006F0AD0A9E065
S214401000B3F1405F7ED0B3F1605F7BD0B3F1205F39
S2144010106CD09FE07B6803F01F03012202FA03F3C3
S2144010201A464FF00061F8684F4B98477B6803F0CC
S2144010301F03012202FA03F319463B6803F001033B
S2144010401A46F868494B984786E07B6803F01F03CA
S214401050012202FA03F31A464FF08051F868424BD9
S21440106098477B6803F01F03012202FA03F31946F0
S2144010703B6803F001031A46F8683C4B98476BE020
S2144010807B6803F01F03012202FA03F31A464FF06F
S214401090C051F868344B98477B6803F01F03012221
S2144010A002FA03F319463B6803F001031A46F86850
S2144010B02E4B984750E07B6803F01F03012202FA4C
S2144010C003F31A464FF00051F868274B98477B6861
S2144010D003F01F03012202FA03F319463B6803F0AC
S2144010E001031A46F868214B984735E07B6803F0C1
S2144010F01F03012202FA03F33A681946F8681C4BAC
S214401100984729E07B6803F01F03012202FA03F3A5
S21440111019463B6803F06053B3F1605F0CBF012390
S2144011200023DBB21A463B6803F00403002B14BFCF
S21440113001230023DBB218463B6803F00103002B73
S21440114014BF01230023DBB200930346F868094C22
S214401150A04701E0002300E0012318461437BD46AF
S21440116090BD00BF79114000090D4000A90C400019
S214401170190E4000990E400080B485B000AF7860EC
S2144011807B685B0903F5001303F207735B02FB60A1
S214401190FB6818461437BD4680BC704780B485B09F
S2144011A000AF78601C491C4B1B6B23F070027B68B9
S2144011B013430B634FF40063FB6007E0FB68002BB0
S2144011C001D1012323E0FB68013BFB60124B9B6E81
S2144011D003F00803002BF1D00F4A0F4B1B6B23F094
S2144011E0030343F0020313634FF40063FB6007E01E
S2144011F0FB68002B01D1012309E0FB68013BFB6043
S214401200054B9B6E03F00803002BF1D000231846D5
S2144012101437BD4680BC704700040E4080B483B08F
S21440122000AF78607B68012B07D1084A074B9B6864
S21440123043F0254343F480139360044B044A1A60FA
S21440124000BF0C37BD4680BC704700BF10140E4030
S214401250080000A580B400AF094B5B6903F080032B
S214401260002B07D0074B9B6E03F08003002B01D06A
S214401270012300E000231846BD4680BC704700BFEF
S21440128010140E4000040E4080B483B000AF786067
S214401290184A184B1B6A43F45C1343F00803136266
S2144012A000BF144B9B6E03F40033002BF9D011495A
S2144012B0104B1B6A23F45C1323F070037A681343C5
S2144012C043F45C130B6200BF0A4B9B6E03F400337F
S2144012D0002BF9D0074A074B1B6A23F09B7323F475
S2144012E0803343F45C13136200BF0C37BD4680BCAA
S2144012F0704700BF00040E4080B483B000AF7860F3
S21440130039607B68002B08D01649164B1B6A164A74
S2144013101A40164B13430B621EE01249114B1B6AD0
S21440132023F45C1323F003033A68120292B2134389
S21440133043F45C1343F001030B6200BF094B9B6E02
S21440134003F00103002BF9D0064A064B1B6A43F014
S2144013509B7343F48033136200BF0C37BD4680BC9A
S214401360704700BF00040E40FCFFC8FE0200370175
S21440137080B400AF034B9B6E03F480331846BD46E3
S21440138080BC704700040E4080B400AF034B4FF063
S21440139000529A6200BFBD4680BC704700040E40B3
S2144013A080B400AF034B9B6E03F002031846BD4665
S2144013B080BC704700040E4080B400AF034B002250
S2144013C0DA6200BFBD4680BC704700BF00040E40D6
S2144013D080B400AF034B9B6E03F004031846BD4633
S2144013E080BC704700040E4080B483B000AF786085
S2144013F07B68222B01D901232FE07B681F2B13D853
S214401400184B9A6901217B6801FA03F31A400121BF
S2144014107B6801FA03F39A421ED0124A01217B6888
S21440142001FA03F3136117E07B68203B7B600D4BAA
S214401430D3F8082101217B6801FA03F31A40012101
S2144014407B6801FA03F39A4206D0064A01217B687C
S21440145001FA03F3C2F80031002318460C37BD46A4
S21440146080BC704700040E4080B483B000AF034693
S214401470FB7197F90730002B0BDB084997F90730CB
S2144014805B09FA7902F01F02012000FA02F241F8E5
S214401490232000BF0C37BD4680BC704700E100E00B
S2144014A080B483B000AF0346FB7197F90730002B3A
S2144014B010DB0B4997F907305B09FA7902F01F02F7
S2144014C0012000FA02F2203341F82320BFF34F8F69
S2144014D0BFF36F8F00BF0C37BD4680BC704700BF60
S2144014E000E100E080B483B000AF0346FB7197F99B
S2144014F00730002B0CDB094997F907305B09FA796E
S21440150002F01F02012000FA02F2603341F8232065
S21440151000BF0C37BD4680BC704700BF00E100E00E
S21440152080B483B000AF03463960FB7197F907304B
S214401530002B0ADB0D4997F907303A68D2B2120100
S214401540D2B20B4483F800230AE00949FB7903F042
S2144015500F03043B3A68D2B21201D2B20B441A7659
S21440156000BF0C37BD4680BC704700BF00E100E0BE
S21440157000ED00E080B483B000AF78607B68072B56
S21440158025D801A252F823F0A9154000AF15400017
S214401590B5154000BB154000BF154000C3154000C0
S2144015A0C7154000CB1540004FF4FA4310E04FF407
S2144015B000430DE04FF400430AE0084B08E0084BB8
S2144015C006E0084B04E0074B02E0064B00E0002331
S2144015D018460C37BD4680BC704700BF00093D002A
S2144015E000127A00001BB70080B500AF0620044BFF
S2144015F09847024613469B0013449B00184680BDFE
S2144016007515400080B500AF024B984703465B080F
S214401610184680BDE915400080B483B000AF7860BE
S2144016203960044B01221A6000BF0C37BD4680BCAF
S214401630704700BFD404002090B583B002AF0B20A3
S2144016400B4B98470B4B009301234FF400420B2162
S21440165009480A4CA0470B20094B98474FF40041D5
S2144016600548084B984700BF0437BD4690BD00BFAD
S214401670E913400019164000000E0E406508400071
S21440168069144000670F400080B582B000AF7860B4
S21440169039603868224B98477B68D3F8503123F03E
S2144016A001027B68C3F850217B68D3F8583143F079
S2144016B008027B68C3F858217B68D3F8503123F082
S2144016C030027B68C3F850217B68D3F8503143F032
S2144016D020027B68C3F850217B68D3F8503123F44E
S2144016E000727B68C3F850217B68D3F8503123F4EE
S2144016F080627B68C3F850217B68D3F8503143F44E
S21440170080627B68C3F850217B68D3F8503123F45D
S21440171000627B68C3F8502100BF0837BD4680BDD5
S214401720E913400080B500AF0B4B98470B210B48A0
S2144017300B4B98470B4B22221A640A4B4FF480728D
S2144017401A6000BF074B9B6803F48073002BF9D0E8
S214401750054B984700BF80BD39164000000E0E402E
S2144017608916400000040E406D17400080B584B0D6
S21440177000AF4FF000610320124B98474FF00061D6
S2144017800420104B984713200F4B98470F4B984711
S21440179003467B600E4BBB603B1D19460D480E4B07
S2144017A0984713200D4B984713200D4B9847002120
S2144017B013200C4B984713200B4B984700BF10370D
S2144017C0BD4680BDC90F4000E913400005164000E5
S2144017D0801A060000800140C5024000A114400067
S2144017E0E5144000211540006914400080B483B0E1
S2144017F000AF0346FB7197F90730002B0BDB084917
S21440180097F907305B09FA7902F01F02012000FAC7
S21440181002F241F8232000BF0C37BD4680BC70471B
S21440182000E100E080B483B000AF78607B68072BAF
S21440183025D801A252F823F0591840005F184000FE
S214401840651840006B1840006F1840007318400041
S214401850771840007B1840004FF4FA4310E04FF4EE
S21440186000430DE04FF400430AE0084B08E0084B05
S21440187006E0084B04E0074B02E0064B00E000237E
S21440188018460C37BD4680BC704700BF00093D0077
S21440189000127A00001BB70080B500AF0620044B4C
S2144018A09847024613469B0013449B00184680BD4B
S2144018B02518400080B500AF024B984703465B08AA
S2144018C0184680BD9918400080B582B000AF002110
S2144018D009480A4B984778607B6803F01003002B52
S2144018E006D0074B1B78DBB20133DAB2044B1A70D2
S2144018F000BF0837BD4680BD00000140DB01400008
S214401900EC04002090B587B002AF184B9847F860BB
S2144019101720174B9847391D07F10802FB680093BC
S2144019200B46F9680120134CA0477B6843F480437C
S2144019301A4600211048114B9847BB68FA68B2FB1C
S214401940F3F31A4600210C480D4B984717200D4BD1
S21440195098471022002108480B4B9847002106481C
S2144019600A4B984700BF1437BD4690BDB518400097
S214401970E9134000FD0140000000014039014000ED
S21440198091014000ED174000B50140007101400054
S21440199080B483B000AF0346FB7197F90730002B45
S2144019A00BDB084997F907305B09FA7902F01F020A
S2144019B0012000FA02F241F8232000BF0C37BD4652
S2144019C080BC704700E100E080B483B000AF786030
S2144019D07B68072B25D801A252F823F0FD1940005A
S2144019E0031A4000091A40000F1A4000131A40001C
S2144019F0171A40001B1A40001F1A40004FF4FA43C3
S214401A0010E04FF400430DE04FF400430AE0084B6B
S214401A1008E0084B06E0084B04E0074B02E0064BA4
S214401A2000E0002318460C37BD4680BC704700BF18
S214401A3000093D0000127A00001BB70080B500AFD9
S214401A400620044B9847024613469B0013449B00CF
S214401A50184680BDC919400080B500AF024B984774
S214401A6003465B08184680BD3D1A400080B582B0EC
S214401A7000AF78607868034B984700BF0837BD468C
S214401A8080BD00BFE913400080B582B000AF0B4870
S214401A900B4B984778607B6803F48053002B09D043
S214401AA008490648084B9847064B1B68DBB2184661
S214401AB0064B984700BF0837BD4680BD00400240F1
S214401AC079064000D80400203D074000911C4000A5
S214401AD080B584B000AF786039600C4B98470023DF
S214401AE0FB6007E00A4AFB68134400221A70FB6852
S214401AF00133FB60FB68B3F57A7FF3DB054B0022CE
S214401B001A6000BF1037BD4680BD00BFBD1C4000F8
S214401B10F0040020E004002080B483B000AF78607A
S214401B203960044B01221A6000BF0C37BD4680BCAA
S214401B30704700BFDC040020B0B586B000AF4FF061
S214401B40006105201C4B98474FF0006106201A4B59
S214401B5098474FF000610820174B9847174B3C4674
S214401B601D460FCD0FC495E8030084E80300144BD0
S214401B7098470246134B1A600E20134B9847114B5A
S214401B801A683B4619461148114B98474FF0FF31AB
S214401B900E48104B98470D480F4B98470B480F4B35
S214401BA09847012109480E4B98470E200D4B984701
S214401BB000BF1837BD46B0BDC90F40004C29400095
S214401BC0591A4000E40400206D1A400000400240CC
S214401BD0A50540005F064000E505400015064000AC
S214401BE0450640009119400090B583B002AF0B20E7
S214401BF00B4B98470B4B009370234FF480520B21AE
S214401C0009480A4CA0470B20094B98474FF480518F
S214401C100548084B984700BF0437BD4690BD00BFF7
S214401C20E9134000D11A4000000E0E4065084000FF
S214401C3091194000670F400090B583B002AF0B206B
S214401C400C4B98470A2201210B480C4B98470C4BEB
S214401C500093792301220B2107480A4CA0470B200A
S214401C60094B984701210448084B984700BF043762
S214401C70BD4690BDE9134000000E0E40D30C400018
S214401C80191B40006508400091194000670F40004E
S214401C9080B483B000AF0346FB71064B1B685A1CEA
S214401CA004490A600449FA79CA5400BF0C37BD4655
S214401CB080BC7047E0040020F004002080B400AFF1
S214401CC000BFBD4680BC704780B582B000AF78602C
S214401CD00B46FB7079681348134B984700BF134B6D
S214401CE01B78DBB2FA789A428CBF01230023DAB223
S214401CF00F4B1B68002B0CBF01230023DBB21340A5
S214401D00DBB2002BEBD1094B1B78DBB2FA789A4258
S214401D1004D2FB7819467868FFF7D6FF00BF08372D
S214401D20BD4680BD004002400D074000EC04002048
S214401D30D804002080B582B000AF78607868034B46
S214401D40984700BF0837BD4680BD00BFE913400036
S214401D5080B500AF0B20034B98470C20014B9847AB
S214401D6000BF80BD351D400080B48DB000AF7860A8
S214401D7039607B68FB623B68BB62FB6A7B627B6A5E
S214401D805A09FB6A3B623B6A03F01F03012101FAD2
S214401D9003F3FA61BB61BB6A7B61FB693B613B69EC
S214401DA003F5001303F207735B02FB607B6903F0E5
S214401DB00803002B03D0FB68BA695A6602E0FB684A
S214401DC0BA691A667B6903F01003002B04D0FB68DF
S214401DD0BA69C3F8942003E0FB68BA69C3F8902058
S214401DE07B6903F02003002B03D0FB68BA691A65B1
S214401DF002E0FB68BA695A657B6903F0C003002BB2
S214401E0003D0FB68BA691A6202E0FB68BA695A6294
S214401E107B6903F08003002B04D0FB68BA69C3F8E3
S214401E20842003E0FB68BA69C3F880207B6903F02E
S214401E300103002B06D0FB681A6FBB691A43FB6888
S214401E401A6706E0FB681A6FBB69DB431A40FB68FB
S214401E501A677B6903F00203002B06D0FB685A6FB3
S214401E60BB691A43FB685A6706E0FB685A6FBB6952
S214401E70DB431A40FB685A6700BF3437BD4680BC18
S214401E80704780B48DB000AF78600B46FB707B68BF
S214401E90FB62FB7887F82B30FB6A7B627B6A3B628F
S214401EA03B6A5B09FB61FB6903F5001303F20773AA
S214401EB05B02BB6197F82B30012B09D1FB6A7B6133
S214401EC07B6903F01F0301229A40BB691A610CE04C
S214401ED097F82B30002B08D1FB6A3B613B6903F037
S214401EE01F0301229A40BB695A61FB6AFB60FB688C
S214401EF003F01F0301229A40BB69C3F8A02000BF2D
S214401F003437BD4680BC704780B48BB000AF786035
S214401F100B46FB707B687B62FB7887F823307B6AD6
S214401F20FB61FB69BB61BB695B097B617B6903F550
S214401F30001303F207735B023B6197F82330002BD4
S214401F4009D07B6AFB60FB6803F01F0301229A40BE
S214401F503B691A6308E07B6ABB60BB6803F01F03FB
S214401F6001229A403B695A6300BF2C37BD4680BC6D
S214401F707047000080B500AF0D4B984701211320F5
S214401F800C4B9847012113200B4B9847002100200B
S214401F90084B984708210020084B98470121072006
S214401FA0044B984700210720034B984700BF80BD4D
S214401FB0511D4000831E4000091F4000691D40001F
S214401FC080B584B000AF274BFB60274BBB60FA68F8
S214401FD0BB689A420DD907E0BB681A1DBA60FA681A
S214401FE0111DF96012681A60BB68204A9342F3D309
S214401FF020E0FA68BB689A421CD21C4A1A4BD31A95
S2144020007B60FA687B681344043BFB60BA687B6875
S2144020101344043BBB600AE0BB681A1FBA60FA6808
S214402020111FF96012681A607B68043B7B607B680E
S214402030002BF1D100BF0E4BBB6004E0BB681A1DFD
S214402040BA6000221A60BB680A4A9342F6D30A4B2B
S214402050FB600A4AFB689360094B9847094B9847D0
S214402060FEE700BFC8294000000000203C040020D6
S2144020703C040020FC0800200000400000ED00E08A
S214402080DD274000CD23400080B400AFFEE70000CF
S21440209080B400AF5D4B1B6B03F00303032B00F2D1
S2144020A0968001A252F823F0B9204000D920400083
S2144020B02321400023214000554B5B6903F08003F9
S2144020C0002B04D0534B4FF400421A6080E0514B33
S2144020D04FF4FA421A607BE04C4B1B6A03F0807365
S2144020E0002B03D04B4B4C4A1A6071E0494B4B4A8D
S2144020F01A60464B1B6A03F07003102B08D0202B47
S2144021000AD0002B00D00BE0424B444A1A6007E04E
S214402110404B434A1A6003E03E4B3F4A1A6000BFBA
S21440212056E03A4B1B6A03F08073002B03D0394BC2
S214402130394A1A6019E0374B384A1A60334B1B6AE3
S21440214003F07003102B08D0202B0AD0002B00D0B1
S2144021500BE0304B314A1A6007E02E4B304A1A608B
S21440216003E02C4B2C4A1A6000BF284B1B6B03F035
S2144021700303022B15D1254B9B6A1B0CC3F30A03A2
S2144021800133244A126802FB03F3224A13601F4BB2
S2144021909B6ADBB21F4A1268B2FBF3F31D4A136018
S2144021A016E01A4BDB6A1B0CC3F30A030133194AC9
S2144021B0126802FB03F3174A1360144BDB6ADBB268
S2144021C0144A1268B2FBF3F3124A136000E000BFF1
S2144021D00E4B1B6B03F07003702B08D10D4B1B6826
S2144021E0104AA2FB03235B080A4A13600AE0074B27
S2144021F01B6B1B0903F00703064A126822FA03F317
S214402200044A136000BFBD4680BC704700040E40C1
S21440221010140E400C000020001BB70000093D00C3
S21440222000127A00ABAAAAAA80B483B000AF786046
S2144022307B68184A934204D8174B4FF080621A6066
S21440224023E07B68154A934203D8134B144A1A601E
S2144022501BE07B68134A934203D80F4B124A1A601E
S21440226013E07B68114A934203D80B4B104A1A601E
S2144022700BE07B680F4A934204D8074B4FF004228A
S2144022801A6002E0044B0C4A1A6000BF0C37BD4689
S21440229080BC7047FF2C3101000A0E40FF59620295
S2144022A000010004FF86930300020004FFB3C40449
S2144022B000030004FFE0F5050005000480B483B089
S2144022C000AF78607B68072B25D801A252F823F030
S2144022D0F1224000F7224000FD2240000323400048
S2144022E0072340000B2340000F23400013234000E9
S2144022F04FF4FA4310E04FF400430DE04FF4004330
S2144023000AE0084B08E0084B06E0084B04E0074BA1
S21440231002E0064B00E0002318460C37BD4680BC62
S214402320704700BF00093D0000127A00001BB7004E
S21440233080B500AF0620044B9847024613469B00E4
S21440234013449B00184680BDBD22400080B500AFB8
S214402350024B984703465B08184680BD3123400031
S21440236080B48BB000AF78600B46FB707B687B62B6
S214402370FB7887F823307B6AFB61FB69BB61BB69EE
S2144023805B097B617B6903F5001303F207735B020D
S2144023903B6197F82330002B09D07B6AFB60FB68D3
S2144023A003F01F0301229A403B691A6308E07B6AE8
S2144023B0BB60BB6803F01F0301229A403B695A6327
S2144023C000BF2C37BD4680BC70470000F8B500AF54
S2144023D02C4B98472C482D4B98472D4B98472D4BC8
S2144023E098472D4B98472D4B98472D4B98472D4B4C
S2144023F09847002113202C4B98472C4B9847034670
S21440240019464FF000020B461446DB1844EB040412
S2144024105B1844EB0204660146EAD3665D015B192D
S21440242044EB06045B1844EB020443F2AF614FF002
S21440243000025D1844EB0206284631461C4C43F227
S214402440B0624FF00003A04703460C461846194BAF
S214402450984701211320144B98471E211648174BC6
S21440246098471E211648154B9847164B1B68002B5D
S214402470FBD0144B00221A60032113480F4B984799
S214402480F3E700BF390C400050140E4035094000B9
S214402490751F40002517400005194000391B4000B5
S2144024A0E91B4000391C4000612340004D2340009A
S2144024B0CD2440000100002064294000C91C400093
S2144024C078294000DC0400208C29400053B94AB9E2
S2144024D0002908BF00281CBF4FF0FF314FF0FF30E7
S2144024E000F07AB9ADF1080C6DE904CE00F006F8BC
S2144024F0DDF804E0DDE9022304B070472DE9F0473B
S2144025008C460D460446089E002B51D18A421746FB
S2144025106DD9B2FA82FEBEF1000F0BD0CEF1200C80
S21440252001FA0EF520FA0CFC02FA0EF74CEA050CFE
S21440253000FA0EF44FEA174A250CBCFBFAF81FFACD
S21440254087F90AFB18CC45EA0C4508FB09F3AB4271
S2144025500AD9ED1908F1FF3280F02381AB4240F2F0
S2144025602081A8F102083D44ED1AA4B2B5FBFAF06A
S2144025700AFB105544EA054400FB09F9A14509D970
S214402580E41900F1FF3380F00A81A14540F207814B
S21440259002383C44A4EB090440EA08400021002EDF
S2144025A061D024FA0EF4002334607360BDE8F087EF
S2144025B08B4207D9002E54D0002186E821000846D9
S2144025C0BDE8F087B3FA83F1002940F08E80AB4235
S2144025D002D3824200F2FA80841A65EB030501209A
S2144025E0AC46002E3FD086E81010BDE8F08712B902
S2144025F00127B7FBF2F7B7FA87FEBEF1000F34D1DA
S214402600EB1B3A0C1FFA87FC0121B3FBF2F8250CB2
S21440261002FB183345EA03450CFB08F3AB4207D9E7
S214402620ED1908F1FF3002D2AB4200F2D18080466D
S214402630ED1AA3B2B5FBF2F002FB105543EA05448F
S2144026400CFB00FCA44507D9E41900F1FF3302D285
S214402650A44500F2B8801846A4EB0C0440EA0840B3
S2144026609DE731463046BDE8F087CEF1200405FAB6
S2144026700EF307FA0EF720FA04F83A0C25FA04F49B
S21440268048EA0308B4FBF2F14FEA184502FB11444E
S2144026901FFA87FC45EA044501FB0CF3AB4200FAFF
S2144026A00EF409D9ED1901F1FF3080F08A80AB4273
S2144026B040F2878002393D44EB1A1FFA88F5B3FB97
S2144026C0F2F002FB103345EA034500FB0CF3AB4245
S2144026D007D9ED1900F1FF386FD2AB426DD90238F9
S2144026E03D44EB1A40EA01418FE7C1F1200722FA48
S2144026F007F88B4005FA01F448EA030320FA07FE80
S2144027004FEA134CFD404EEA040EB5FBFCF94FEA87
S2144027101E440CFB19551FFA83F844EA054509FB8D
S21440272008F4AC4202FA01F200FA01FA08D9ED18B0
S21440273009F1FF3043D2AC4241D9A9F102091D4408
S2144027402D1B1FFA8EFEB5FBFCF00CFB10554EEA17
S214402750054400FB08F8A04507D9E41800F1FF350A
S21440276029D2A04527D902381C4440EA0940A4EBA8
S2144027700804A0FB02894C45C6464D4615D312D0E8
S21440278056B1BAEB0E0364EB050404FA07F7CB40E8
S2144027901F43CC40376074600021BDE8F087184680
S2144027A0F8E69046E0E6C245EAD2B8EB020E69EBA0
S2144027B003050138E4E72846D7E7404691E78146D7
S2144027C0BEE7014678E702383C4445E7084608E756
S2144027D0A8F102083D442BE7704700BF70B50F4E86
S2144027E00F4D761BB61018BF002405D0013455F89F
S2144027F0043B9847A642F9D10A4E0B4D761B00F093
S214402800CDF8B61018BF002406D0013455F8043B66
S2144028109847A642F9D170BD70BD00BFA8294000B8
S214402820A8294000B0294000A8294000024B13B117
S214402830024800F005B87047000000004D284000F0
S214402840002301461A46184600F01EB838B50A4C12
S2144028500A4D641BA4100AD004F18043013B05EBEB
S2144028608305013C55F804399847002CF9D1BDE85A
S214402870384000F09DB800BFC0294000BC29400049
S214402880704700BF704700BF2DE9F8432C4D064601
S214402890286898460F469146FFF7F2FF294B1C687A
S2144028A0D4F84831002B3ED05A681F2A1CDC02F16F
S2144028B0010E76B103EB82010124C1F88890D3F86B
S2144028C0880194402043022EC3F88801C1F808814D
S2144028D023D00232C3F804E0286843F82270FFF79A
S2144028E0D1FF0020BDE8F883174B0BB34FF4C870F8
S2144028F0AFF300800346D8B1D4F8482102600021E7
S21440290041600A46C4F848014FF0010EC0F88811ED
S214402910C0F88C11002EDCD0CCE7D3F88C110C43D9
S214402920C3F88C41D5E704F5A673C4F84831BBE735
S2144029302868FFF7A7FF4FF0FF30BDE8F88300BFD9
S21440294038040020982940000000000000C2010022
S214402950C00000000008000000000000000000006A
S2144029600000000073657420737920632070206F28
S21440297066660D0A00000000736574207379206354
S2144029802065206F66660D0A00000000736574754A
S21440299070207765620D0A0010000020F8B500BF71
S2144029A0F8BC08BC9E4670472D284000F100400009
S2144029B0F8B500BFF8BC08BC9E467047CD00400046
S20C4029C03CFBFF7F0100000014
S2144029C8BFF35F8F0138FBD17047000000093D0018
S2144029D800000000FC02002064030020CC03002016
S2144029E8000000000000000000000000000000009A
S2144029F8000000000000000000000000000000008A
S214402A080000000000000000000000000000000079
S214402A180000000000000000000000000000000069
S214402A280000000000000000000000000000000059
S214402A380000000000000000000000000000000049
S214402A480000000000000000000000000000000039
S214402A580000000000000000000000000000000029
S214402A680000000000000000000000000000000019
S214402A780000000000000000010000000000000008
S214402A880E33CDAB34126DE6ECDE05000B000000CD
S214402A9800000000000000000000000000000000E9
S214402AA800000000000000000000000000000000D9
S214402AB800000000000000000000000000000000C9
S214402AC800000000000000000000000000000000B9
S210402DF80000000000000000D80800208A
S804401FC1DB
