S016000057656263616D4669726D776172652E7372656382
S21440000000390020E5274000AD284000AD284000DC
S214400010AD284000AD284000AD284000000000005C
S214400020000000000000000000000000AD28400076
S214400030AD28400000000000AD284000AD2840003C
S214400040AD284000AD284000AD284000AD28400017
S214400050AD284000AD284000AD284000000000001C
S214400060AD284000AD28400000000000490B40008D
S214400070610B400000000000B9224000AD2840005F
S2144000800000000000000000AD284000AD28400001
S214400090AD284000AD284000AD284000F920400083
S2144000A0AD284000AD2840000000000000000000E1
S2144000B000000000AD284000AD284000AD284000BC
S2144000C0AD284000AD284000AD28400010B5054C96
S2144000D0237833B9044B13B10448AFF300800123AF
S2144000E0237010BD3C040020000000000C3E400081
S2144000F00C4B43B10C480D4910B5AFF300800C488B
S214400100036823B910BD0A48036833B97047094BE2
S214400110002BF7D0BDE810401847064B002BF5D013
S214400120184700BF000000000C3E4000400400207E
S2144001300C3E40000000000080B487B000AFF8607E
S214400140B9607A60FA68BB689B0113447B617B693F
S21440015002221A607B694FF0FF329A627B691B6A03
S2144001607B697A685A6000BF1C37BD4680BC7047C2
S21440017080B483B000AF786039607A683B689B0192
S214400180134405221A6000BF0C37BD4680BC70473A
S21440019080B485B000AFF860B9607A60FA68BB6832
S2144001A09B0113441C337A681A6000BF1437BD465F
S2144001B080BC704780B487B000AFF860B9607A60A2
S2144001C0FA68BB689B0113447B617B697A685A6214
S2144001D000BF1C37BD4680BC704780B485B000AFBA
S2144001E0786039607A683B689B011344FB60FB6823
S2144001F01B6A18461437BD4680BC704780B48DB025
S21440020000AFF860B9607A603B6002233B61082328
S2144002107B612023BB618023FB61BB6BDB0B3B62B6
S2144002200023FB621AE0FB6A9B0007F1300213448E
S21440023053F8203CBA68B2FBF3F3BB62BB6A1B0CB4
S2144002407B62FA68BB6A9A4201D9002323E0FA68C7
S2144002507B6A9A4206D2FB6A0133FB62FB6A042B36
S214400260E1D900E000BFFB6A042B01D9002312E06D
S2144002707B68002B08D0FB6A9B0007F130021344D2
S21440028053F8202C7B681A603B68002B02D03B68F2
S214400290FA6A1A60012318463437BD4680BC704758
S2144002A080B483B000AF78607B6808221A607B68B1
S2144002B020221A607B6804221A6000BF0C37BD46B5
S2144002C080BC704780B584B000AF7860396000234A
S2144002D0FB607B684FF0FF329A627B681B6A7868E7
S2144002E00E4B984778680E4B98473B6859683B6872
S2144002F01B681A4678680B4B98470346012B01D17A
S2144003000123FB603B685B7A012B02D17B6840226D
S2144003101A60FB6818461037BD4680BD610640002F
S214400320A10240002903400080B489B000AFF860C5
S214400330B9607A600023FB61BB68344A934201D9B6
S21440034001235DE0BB68324A934237D97B68314A25
S214400350A2FB03239B0B043B7B61BA682E4B1344E2
S2144003609B007A68B2FBF3F3043B3B6105E0FB6914
S2144003700133FB617B695B087B617B69FF2B09D995
S214400380FB69062BF3D905E0FB690133FB613B694A
S2144003905B083B613B69FF2B02D9FB69062BF3D90F
S2144003A07B69DAB23B691B029BB21A43FB691B04AA
S2144003B003F4E0231A43FB681A6120E0BB685B0045
S2144003C07A68B2FBF3F3043BBB6105E0FB6901339B
S2144003D0FB61BB695B08BB61BB69FF2B02D9FB694C
S2144003E0062BF3D9BB69DAB2BB691B029BB21A4330
S2144003F0FB691B0403F4E0231A43FB681A610023DD
S21440040018462437BD4680BC704700BF801A060099
S21440041000DC0500F11976050012FD3F80B485B07A
S21440042000AF786039603B68002B01D100231DE0A7
S2144004307B681B78FB603B68012B09DDFB681B0271
S214400440FB607B6801331B781A46FB681343FB60EE
S2144004503B68022B09DDFB681B02FB607B680233AE
S2144004601B781A46FB681343FB60FB681846143734
S214400470BD4680BC7047000080B588B000AF78604D
S21440048039603B68DB68FB613B689B68BB61002367
S214400490FB7547F230533B61FB69002B01D10123CA
S2144004A069E07B6800225A603B681B7C1B0403F4AF
S2144004B0FE023B685B681B0203F44073134343F43D
S2144004C080527B685A607B680022DA603A683B68F4
S2144004D05B68194610462A4B984702467B68DA60A6
S2144004E0FB69012B05D17B6803221A600123FB754B
S2144004F034E07B6801221A600023FB752EE07B689F
S2144005001B6AFB60FB6803F48073002B01D0052355
S21440051031E03B695A1E3A61002B01D109232AE09B
S214400520FB69012B07D1FB7D002B04D17B6802229F
S2144005301A600123FB75FB6803F00203002B00D111
S2144005400CE0BB695A1CBA617A68126BD2B21A7058
S214400550FB69013BFB6147F230533B61FB69002B73
S214400560CDD100BF7B681B6A03F00103002BF9D096
S2144005707B681B6A002318462037BD4680BD00BFF7
S2144005801D04400080B586B000AF786039603B6897
S214400590DB687B613B689B683B617B69002B01D1D4
S2144005A0012356E07B6800225A603B681B7C1B0494
S2144005B003F4FE023B685B681B0203F440731A4375
S2144005C07B685A607B680022DA603A683B685B6802
S2144005D019461046214B984702467B68DA6019E078
S2144005E07B681B6AFB60FB6803F48073002B01D0BA
S2144005F005232EE0FB6803F00403002B00D109E03E
S2144006003B695A1C3A611B781A467B685A637B6979
S214400610013B7B617B69002BE2D17B681B6AFB60F8
S214400620FB6803F48073002B01D0052311E0FB68C0
S21440063003F00403002B00D1EFE700BF7B680222E3
S2144006401A6000BF7B681B6A03F00103002BF9D0D9
S214400650002318461837BD4680BD00BF1D04400025
S21440066080B483B000AF78607B6880221A607B6875
S2144006701B6B00BF0C37BD4680BC704780B489B04A
S21440068000AFF860B9607A60BB681A017B689A422E
S21440069002D81023FB6101E00823FB617B68DA0087
S2144006A0FB69B96801FB03F35B081A44FB69B96848
S2144006B001FB03F3B2FBF3F3BB61BB69DB087B6171
S2144006C0BB6903F007033B617B69002B03D07B6962
S2144006D0B3F5803F01D301230FE0FB69082B05D11A
S2144006E0FB685B6843F40022FB685A603B691A0467
S2144006F07B691A43FB681A62002318462437BD46B6
S21440070080BC704780B582B000AF786078680F4B89
S21440071098477B6800225A607B6800225A627B6852
S21440072000229A6278680A4B98477868094B98473F
S2144007307868094B98477868084B98477868084B1C
S214400740984700BF0837BD4680BD00BFB50940008A
S2144007504108400071084000D308400007094000A7
S214400760ED08400080B584B000AFF860B9607A60AC
S214400770F8681A4B98471A4B00221A60BB68002B41
S21440078009D0BB681B687A681946F868154B9847C5
S2144007900346002B01D001231BE0BB685A68BB68A8
S2144007A09B681A43BB681B691A43BB68DB681A43DD
S2144007B00B4B1B6813430A4A1360094B1B68084AD5
S2144007C01360FB685A68064B1B681A43FB685A60FE
S2144007D0002318461037BD4680BD00BF05074000C1
S2144007E0580400207D06400080B584B000AFF86015
S2144007F0B9607A607A68B968F8680A4B98470346E1
S214400800002B01D0012308E0FB685B6823F00F0350
S21440081043F00202FB685A60002318461037BD4674
S21440082080BD00BF6507400080B483B000AF7860ED
S2144008307B6840221A6000BF0C37BD4680BC7047BC
S21440084080B483B000AF78607B6888221A6000BFAF
S2144008500C37BD4680BC704780B483B000AF78602C
S2144008607B6810221A6000BF0C37BD4680BC7047BC
S21440087080B483B000AF78607B6824221A6000BFE3
S2144008800C37BD4680BC704780B483B000AF7860FC
S21440089039607B683A689A6000BF0C37BD4680BCBA
S2144008A0704780B483B000AF786039607B683A6840
S2144008B0DA6000BF0C37BD4680BC704780B483B05A
S2144008C000AF78607B685B6918460C37BD4680BCD5
S2144008D0704780B483B000AF78607B684FF4807216
S2144008E01A6000BF0C37BD4680BC704780B483B0EA
S2144008F000AF78607B684FF400321A6000BF0C3758
S214400900BD4680BC704780B483B000AF78607B68DB
S2144009104FF400221A6000BF0C37BD4680BC7047BB
S21440092080B483B000AF7860396000BF7B685B6995
S21440093003F00203002BF9D03B68C3F308027B6840
S214400940DA61002318460C37BD4680BC704700006D
S21440095080B582B000AF7860396007E03B685A1CCB
S2144009603A601B7819467868044B98473B681B7872
S214400970002BF3D100BF0837BD4680BD210940009B
S21440098080B483B000AF786039607B685B6903F001
S2144009900103002B01D1012306E07B689B69C3F36A
S2144009A008023B681A60002318460C37BD4680BCD8
S2144009B07047000080B483B000AF78607B68044A1C
S2144009C0C3F8E42000BF0C37BD4680BC704700BF6C
S2144009D00041535580B584B000AF78603960786880
S2144009E02C4B9847F86078682B4B98470246FB6834
S2144009F01340FB60FB68002B3CD00023BB6034E018
S214400A00264ABB681B0113441A683B689A4226D1A3
S214400A10224ABB681B01134404331A68FB68134020
S214400A20002B1CD01D4ABB681B0113440C331B68AB
S214400A301A49BA6812010A4410681849BA6812017D
S214400A400A440432126811469847144ABB681B0190
S214400A50134404331B68DB43FA681340FB60BB68EF
S214400A600133BB60BB68062B03D8FB68002BC7D19D
S214400A7000E000BF0A4B1B68002B07D0094B1B68E1
S214400A80002B03D0074B1B687868984700BF103789
S214400A90BD4680BDDF114000F51140005C040020DB
S214400AA0E8040020D004002080B586B000AFF8608F
S214400AB0B9607A603B60214B1B68062B01D9012345
S214400AC038E00023FB7511E0FB7D1B011C4A1344F4
S214400AD03B613B691A68BB689A4204D13B695A68D5
S214400AE07B689A4208D0FB7D0133FB75FA7D134B39
S214400AF01B689A42E8D900E000BF3B69BA681A60B2
S214400B003B697A685A603B693A689A603B693A6AD8
S214400B10DA60FA7D094B1B6801339A4204D1074BD1
S214400B201B680133054A13603A687968F868054BD4
S214400B309847002318461837BD4680BDCC04002091
S214400B405C0400204111400080B500AF0B210248F4
S214400B50024B984700BF80BD000E0E40D5094000AE
S214400B6080B500AF0C210248024B984700BF80BDBD
S214400B7000100E40D509400080B483B000AF7860C6
S214400B807B684FF400425A6000BF0C37BD4680BCBD
S214400B907047000080B582B000AF78607B68072B56
S214400BA031D801A252F823F0050C4000C90B400092
S214400BB0D10B4000D90B4000E10B4000E90B400050
S214400BC0F10B4000FB0B40000020114B98471AE009
S214400BD001200F4B984716E000200E4B984712E036
S214400BE010200C4B98470EE020200A4B98470AE00E
S214400BF03E210020084B984705E03E210120064B49
S214400C00984700E000BF00BF0837BD4680BD00BF24
S214400C1061144000CD1440003D15400080B582B0C0
S214400C2000AF78607B68072B26D801A252F823F0E5
S214400C30510C4000550C4000550C4000670C4000DD
S214400C40670C4000670C4000670C4000670C400093
S214400C50012312E00B4B98470346002B14BF012399
S214400C600023DBB209E0084B98470346002B14BF2D
S214400C7001230023DBB200E0002318460837BD46B8
S214400C8080BD00BF99144000B515400080B483B0C5
S214400C9000AF78607B68072B25D801A252F823F076
S214400CA0C10C4000C70C4000CD0C4000D30C4000A7
S214400CB0D70C4000DB0C4000DF0C4000E30C40004B
S214400CC04FF4FA4310E04FF400430DE04FF4004376
S214400CD00AE0084B08E0084B06E0084B04E0074BE8
S214400CE002E0064B00E0002318460C37BD4680BCA9
S214400CF0704700BF00093D0000127A00001BB70095
S214400D0080B582B000AF0346FB7100BFFB79184642
S214400D10054B9847034683F00103DBB2002BF5D121
S214400D2000BF0837BD4680BD1D0C400080B586B06C
S214400D3000AFF8607A603B600B46FB72FB7A184661
S214400D400D4B984702467B68B2FBF3F37B617B69A9
S214400D503A6802FB03F37B613B68013B1A04074B8E
S214400D6013407A68D2B2134343F47C52FB681A604D
S214400D7000BF1837BD4680BD8D0C40000000FF0701
S214400D8080B582B000AF786039603B68002B08D1F0
S214400D90094B9847094A7B681B6843F000539362A7
S214400DA005E0074B9847054A7B681B68D36200BF3F
S214400DB00837BD4680BD00BFCD15400000040E403C
S214400DC0FD15400080B582B000AF78607B68002B90
S214400DD003D1054B9847034602E0044B9847034629
S214400DE018460837BD4680BDE5154000151640003C
S214400DF080B582B000AF0346FB71FB79033B042B02
S214400E0008D8FB791846064B9847FB791846054B99
S214400E10984700E000BF00BF0837BD4680BD00BF12
S214400E20950B4000010D400080B582B000AF786061
S214400E3000BF7868044B98470346002BF9D0002340
S214400E4018460837BD4680BDC50D400080B500AF8A
S214400E500620044B9847024613469B0013449B00CB
S214400E60184680BD8D0C400080B500AF024B9847B9
S214400E7003465B08184680BD4D0E400090B583B0D3
S214400E8000AF1148114B98470620114B9847381D24
S214400E901423012206210F4CA0473B1D0021184673
S214400EA00D4B984700200D4B984710200C4B984709
S214400EB00C4B98470C4B984703461846034B9847AD
S214400EC000BF0C37BD4690BD000E27074D2A400098
S214400ED0F10D40002D0D4000810D4000290E4000D0
S214400EE0E1134000B5284000690E400080B485B04C
S214400EF000AFF860B9607A607B68002B03D0FB686F
S214400F00BA685A6602E0FB68BA681A6600BF1437C9
S214400F10BD4680BC704780B485B000AFF860B9600D
S214400F207A60FB68BA68C3F884207B685B004FF43D
S214400F300042B2FBF3F3013BC3F30D02FB68C3F878
S214400F408C2000BF1437BD4680BC704780B487B045
S214400F5000AFF860B9607A60FB687A685A64BB682C
S214400F60B3F1C05F4AD0B3F1C05F08D8B3F1006FA9
S214400F7016D0B3F1805F2CD0002B69D064E0B3F17B
S214400F80205F65D0B3F1205F03D8B3F1005F4AD04D
S214400F905AE0B3F1405F5BD0B3F1605F58D053E0A6
S214400FA0FB681B6F7B61FB681A6F7B68D9437B6964
S214400FB00B401A40FB681A67FB685B6F7B61FB68F7
S214400FC05A6F7B68D9437B690B401A40FB685A6767
S214400FD03AE0FB681B6F7B617A687B691A43FB6863
S214400FE01A67FB685B6F7B61FB685A6F7B68D94307
S214400FF07B690B401A40FB685A6725E0FB681B6F0D
S2144010007B61FB681A6F7B68D9437B690B401A404B
S214401010FB681A67FB685B6F7B617A687B691A437B
S214401020FB685A6710E0FB681B6F7B617A687B69D8
S2144010301A43FB681A67FB685B6F7B617A687B695B
S2144010401A43FB685A6700BFFB687A685A6000E03C
S21440105000BF1C37BD4680BC7047000080B584B0DA
S21440106000AFF860B9607A60B968F868194B98477D
S2144010707B6803F001031A46B968F868164B984730
S2144010807B6803F00A03002B03D0FB68BA681A6239
S21440109002E0FB68BA685A627B6803F00203002BE2
S2144010A004D0FB68BA68C3F8802008E07B6803F089
S2144010B00803002B03D0FB68BA68C3F88420FB689B
S2144010C0BA685A61FB68BA681A6000BF1037BD46F6
S2144010D080BD00BFC5114000ED0E400080B584B015
S2144010E000AFF860B9607A603B60B968F868124B48
S2144010F09847BA69B968F868104B98473B68002B20
S21440110003D0FB68BA681A6502E0FB68BA685A659D
S2144011107B68002B03D0FB68BA681A6302E0FB6862
S214401120BA685A63FB68BA681A61FB68BA681A609C
S21440113000BF1037BD4680BDC5114000ED0E4000D3
S21440114080B485B000AFF860B9607A607B6803F021
S2144011501003002B20D0FB68BA68C3F8B0207B6829
S21440116003F02003002B04D0FB68BA68C3F8D420F1
S21440117003E0FB68BA68C3F8D0207B6803F04003FE
S214401180002B04D0FB68BA68C3F8C02008E0FB68B0
S214401190BA68C3F8C42003E0FB68BA68C3F8B42052
S2144011A000BF1437BD4680BC704780B483B000AFE4
S2144011B0786039607B683A681A6400BF0C37BD4671
S2144011C080BC704780B483B000AF786039607B687D
S2144011D03A685A6400BF0C37BD4680BC704780B43E
S2144011E083B000AF78607B68DB6C18460C37BD4632
S2144011F080BC704780B483B000AF78607B689B6CDF
S21440120018460C37BD4680BC7047000090B587B086
S21440121002AF786039607868634B9847F8603B68FF
S21440122003F0F043B3F1005F67D0B3F1005F09D835
S214401230B3F1805F2BD0B3F1C05F43D0B3F1006F02
S2144012400AD0A9E0B3F1405F7ED0B3F1605F7BD0B7
S214401250B3F1205F6CD09FE07B6803F01F03012250
S21440126002FA03F31A464FF00061F8684F4B98476E
S2144012707B6803F01F03012202FA03F319463B681A
S21440128003F001031A46F868494B984786E07B68A6
S21440129003F01F03012202FA03F31A464FF080516F
S2144012A0F868424B98477B6803F01F03012202FA16
S2144012B003F319463B6803F001031A46F8683C4BB3
S2144012C098476BE07B6803F01F03012202FA03F3A2
S2144012D01A464FF0C051F868344B98477B6803F085
S2144012E01F03012202FA03F319463B6803F0010389
S2144012F01A46F8682E4B984750E07B6803F01F0369
S214401300012202FA03F31A464FF00051F868274BC1
S21440131098477B6803F01F03012202FA03F319463D
S2144013203B6803F001031A46F868214B984735E0BE
S2144013307B6803F01F03012202FA03F33A6819465A
S214401340F8681C4B984729E07B6803F01F0301228E
S21440135002FA03F319463B6803F06053B3F1605F4B
S2144013600CBF01230023DBB21A463B6803F004039C
S214401370002B14BF01230023DBB218463B6803F062
S2144013800103002B14BF01230023DBB20093034666
S214401390F868094CA04701E0002300E00123184606
S2144013A01437BD4690BD00BFBD1340004D0F4000F2
S2144013B0ED0E40005D104000DD10400080B485B06A
S2144013C000AF78607B685B0903F5001303F2077390
S2144013D05B02FB60FB6818461437BD4680BC70470E
S2144013E080B485B000AF78601C491C4B1B6B23F063
S2144013F070027B6813430B634FF40063FB6007E0A7
S214401400FB68002B01D1012323E0FB68013BFB6016
S214401410124B9B6E03F00803002BF1D00F4A0F4B84
S2144014201B6B23F0030343F0020313634FF4006384
S214401430FB6007E0FB68002B01D1012309E0FB6855
S214401440013BFB60054B9B6E03F00803002BF1D07D
S214401450002318461437BD4680BC704700040E4033
S21440146080B483B000AF78607B68012B07D1084A10
S214401470074B9B6843F0254343F480139360044B2B
S214401480044A1A6000BF0C37BD4680BC704700BF98
S21440149010140E40080000A580B400AF094B5B69ED
S2144014A003F08003002B07D0074B9B6E03F08003AE
S2144014B0002B01D0012300E000231846BD4680BC27
S2144014C0704700BF10140E4000040E4080B483B036
S2144014D000AF7860184A184B1B6A43F45C1343F01D
S2144014E00803136200BF144B9B6E03F40033002BBB
S2144014F0F9D01149104B1B6A23F45C1323F0700398
S2144015007A68134343F45C130B6200BF0A4B9B6E2E
S21440151003F40033002BF9D0074A074B1B6A23F02D
S2144015209B7323F4803343F45C13136200BF0C3781
S214401530BD4680BC704700BF00040E4080B483B0F8
S21440154000AF786039607B68002B08D01649164B90
S2144015501B6A164A1A40164B13430B621EE012498A
S214401560114B1B6A23F45C1323F003033A68120200
S21440157092B2134343F45C1343F001030B6200BF83
S214401580094B9B6E03F00103002BF9D0064A064B2D
S2144015901B6A43F09B7343F48033136200BF0C37DF
S2144015A0BD4680BC704700BF00040E40FCFFC8FE2E
S2144015B00200370180B400AF034B9B6E03F48033C8
S2144015C01846BD4680BC704700040E4080B400AF4D
S2144015D0034B4FF000529A6200BFBD4680BC704736
S2144015E000040E4080B400AF034B9B6E03F0020332
S2144015F01846BD4680BC704700040E4080B400AF1D
S214401600034B0022DA6200BFBD4680BC704700BF75
S21440161000040E4080B400AF034B9B6E03F00403FF
S2144016201846BD4680BC704700040E4080B483B068
S21440163000AF78607B68222B01D901232FE07B68BE
S2144016401F2B13D8184B9A6901217B6801FA03F3C4
S2144016501A4001217B6801FA03F39A421ED0124ACF
S21440166001217B6801FA03F3136117E07B68203B96
S2144016707B600D4BD3F8082101217B6801FA03F308
S2144016801A4001217B6801FA03F39A4206D0064AC3
S21440169001217B6801FA03F3C2F8003100231846A3
S2144016A00C37BD4680BC704700040E4080B483B003
S2144016B000AF0346FB7197F90730002B0BDB084958
S2144016C097F907305B09FA7902F01F02012000FA09
S2144016D002F241F8232000BF0C37BD4680BC70475D
S2144016E000E100E080B483B000AF0346FB7197F999
S2144016F00730002B10DB0B4997F907305B09FA7966
S21440170002F01F02012000FA02F2203341F82320A3
S214401710BFF34F8FBFF36F8F00BF0C37BD4680BC03
S214401720704700BF00E100E080B483B000AF0346DE
S214401730FB7197F90730002B0CDB094997F9073006
S2144017405B09FA7902F01F02012000FA02F26033C8
S21440175041F8232000BF0C37BD4680BC704700BF11
S21440176000E100E080B483B000AF03463960FB710F
S21440177097F90730002B0ADB0D4997F907303A688E
S214401780D2B21201D2B20B4483F800230AE00949D0
S214401790FB7903F00F03043B3A68D2B21201D2B28F
S2144017A00B441A7600BF0C37BD4680BC704700BF5E
S2144017B000E100E000ED00E080B483B000AF786068
S2144017C07B68072B25D801A252F823F0ED1740007E
S2144017D0F3174000F9174000FF1740000318400079
S2144017E0071840000B1840000F1840004FF4FA430B
S2144017F010E04FF400430DE04FF400430AE0084B7E
S21440180008E0084B06E0084B04E0074B02E0064BB6
S21440181000E0002318460C37BD4680BC704700BF2A
S21440182000093D0000127A00001BB70080B500AFEB
S2144018300620044B9847024613469B0013449B00E1
S214401840184680BDB917400080B500AF024B984798
S21440185003465B08184680BD2D18400080B483B010
S21440186000AF78603960044B01221A6000BF0C3725
S214401870BD4680BC704700BFD404002090B583B0FE
S21440188002AF0B200B4B98470B4B009301234FF4B2
S21440189000420B2109480A4CA0470B20094B9847A9
S2144018A04FF400410548084B984700BF0437BD46F3
S2144018B090BD00BF2D1640005D184000000E0E4043
S2144018C0A90A4000AD164000AB11400080B582B07A
S2144018D000AF786039603868224B98477B68D3F809
S2144018E0503123F001027B68C3F850217B68D3F85F
S2144018F0583143F008027B68C3F858217B68D3F818
S214401900503123F030027B68C3F850217B68D3F80F
S214401910503143F020027B68C3F850217B68D3F8EF
S214401920503123F400727B68C3F850217B68D3F8AB
S214401930503123F480627B68C3F850217B68D3F82B
S214401940503143F480627B68C3F850217B68D3F8FB
S214401950503123F400627B68C3F8502100BF08373B
S214401960BD4680BD2D16400080B500AF0E4B984753
S2144019700B210E480E4B98474FF0805111200D4BCF
S21440198098470D4B13225A640B4B4FF400721A6063
S21440199000BF094B9B6803F40073002BF9D0074B3C
S2144019A0984700BF80BD00BF7D184000000E0E4027
S2144019B0CD1840000D12400000040E40C1194000F2
S2144019C080B584B000AF4FF000610320124B9847BB
S2144019D04FF000610420104B984713200F4B984758
S2144019E00F4B984703467B600E4BBB603B1D19462A
S2144019F00D480E4B984713200D4B984713200D4B20
S214401A009847002113200C4B984713200B4B9847C0
S214401A1000BF1037BD4680BD0D1240002D16400059
S214401A2049184000801A060000800140C502400068
S214401A30E51640002917400065174000AD164000E7
S214401A402DE9F84F00AF00BF2648274B984703467E
S214401A50012BF9D00B212348244B9847244B984719
S214401A60034619464FF000020B461446DB1844EB7B
S214401A7004045B1844EB02044FEA041B4BEA137B56
S214401A804FEA031A53465C465B1A64EB02044FEA7D
S214401A90C40949EA53794FEAC30843464C465B1AA1
S214401AA064EB0204E60046EA5376DD002B463446F5
S214401AB01946224643F2AF634FF00004CD1842EB7E
S214401AC00406284631460B4C43F2B0624FF0000302
S214401AD0A04703460C461846074B984700BFBDE84C
S214401AE0F88F00BF00800140551E4000E11E4000B8
S214401AF049184000F92C40000100002080B483B013
S214401B0000AF78607B68072B25D801A252F823F0F7
S214401B10311B4000371B40003D1B4000431B40002C
S214401B20471B40004B1B40004F1B4000531B4000D0
S214401B304FF4FA4310E04FF400430DE04FF40043F7
S214401B400AE0084B08E0084B06E0084B04E0074B69
S214401B5002E0064B00E0002318460C37BD4680BC2A
S214401B60704700BF00093D0000127A00001BB70016
S214401B7080B500AF0620044B9847024613469B00AC
S214401B8013449B00184680BDFD1A400080B500AF48
S214401B90024B984703465B08184680BD711B4000C1
S214401BA080B58EB000AF78600023FB600023BB603A
S214401BB0302387F834300A2387F824300123BB6269
S214401BC007F10C03FB6201233B6307F1240319462C
S214401BD078680E4B9847302387F820300B233B74A9
S214401BE001237B6107F10803BB610123FB6107F119
S214401BF0100319467868054B9847FB681A02BB687D
S214401C00134318463837BD4680BD00BF391D4000D7
S214401C1080B58AB000AF786000233B610023FB604C
S214401C201C233B750123BB61302387F8243007F122
S214401C301003FB6101233B6207F1140319467868E1
S214401C40104B98471D233B750123BB61302387F813
S214401C50243007F10C03FB6101233B6207F11403B8
S214401C6019467868074B98473B697F2B04D1FB6839
S214401C70A22B01D1002300E0012318462837BD4699
S214401C8080BD00BF391D400080B58AB000AF786087
S214401C9000233B610023FB600023BB6001233B75B0
S214401CA00123BB61302387F8243001233B6207F1D0
S214401CB00C03FB6107F11403194678681C4B9847E0
S214401CC0AD23BB6007F10803FB6107F11403194617
S214401CD07868184B984707F11003FB6107F1140327
S214401CE019467868124B98473A69BB689A4201D0C1
S214401CF0012318E007F10C03FB6107F114031946B2
S214401D0078680C4B984707F11003FB6107F1140302
S214401D1019467868064B98473A69FB689A4201D05C
S214401D20012300E0002318462837BD4680BD00BF8B
S214401D30391D40005D1D400080B584B000AF78601E
S214401D40396039687868044B9847F860FB681846ED
S214401D501037BD4680BD00BF7904400080B584B0D2
S214401D6000AF7860396039687868044B9847F86007
S214401D70FB6818461037BD4680BD00BF850540004D
S214401D802DE9F0488AB000AF7860396000237B6266
S214401D903B683B6248E03B6A1B78FE2B26D1294BCA
S214401DA09847034619464FF000020B461446A600D5
S214401DB046EA93769D002B4634465B1844EB020475
S214401DC043F2AF614FF0000213EB010B44EB020C01
S214401DD0584661461C4C43F2B0624FF00003A047A1
S214401DE003460C461846194B98471AE03B6A1B7840
S214401DF03B720123FB6030233B7601237B613B6AC9
S214401E0001333B6107F1080319467868104B984741
S214401E10F8617B6A01337B62FB69082B01D1FB6961
S214401E200BE03B6A02333B623B6A1B78FF2BB2D126
S214401E303B6A5B78FF2BAED1002318462837BD4659
S214401E40BDE8F0888D1B4000F92C400001000020C2
S214401E505D1D400080B58AB000AF7860012387F8EA
S214401E60233007F10C0300221A605A609A60DA6049
S214401E701A61FF233B7301233B6107F123037B6118
S214401E800123BB6130233B7707F10C031946786882
S214401E900F4B984700237B6278680E4B98477862D2
S214401EA07B6A1B0ADBB2262B0DD178680A4B984713
S214401EB00346002B07D17868084B98470346002B0B
S214401EC001D1002300E0012318462837BD4680BDD7
S214401ED05D1D4000A11B4000111C4000891C4000B5
S214401EE080B584B000AF78600B46FB700023FB6083
S214401EF0FB78112B5CD801A252F823F0451F400016
S214401F004B1F4000511F4000571F40005D1F4000C0
S214401F10631F4000691F40006F1F4000751F400050
S214401F207B1F4000811F4000871F40008D1F4000E0
S214401F30931F4000991F40009F1F4000A51F400070
S214401F40AB1F4000224BFB6033E0224BFB6030E08F
S214401F50214BFB602DE0214BFB602AE0204BFB60D1
S214401F6027E0204BFB6024E01F4BFB6021E01F4B2B
S214401F70FB601EE01E4BFB601BE01E4BFB6018E048
S214401F801D4BFB6015E01D4BFB6012E01C4BFB60DD
S214401F900FE01C4BFB600CE01B4BFB6009E01B4B4F
S214401FA0FB6006E01A4BFB6003E01A4BFB6000E068
S214401FB000BFFB68002B05D0F9687868164B984739
S214401FC0002300E0012318461037BD4680BD00BF01
S214401FD078314000F83240000C3340002033400057
S214401FE070334000C433400018344000683440002A
S214401FF0BC3440001035400000364000F03640000B
S214402000E0374000D0384000C4394000B83A40007D
S214402010AC3B4000A03C4000811D400080B483B0F3
S21440202000AF0346FB7197F90730002B0BDB0849DE
S21440203097F907305B09FA7902F01F02012000FA8F
S21440204002F241F8232000BF0C37BD4680BC7047E3
S21440205000E100E080B483B000AF78607B68072B77
S21440206025D801A252F823F0892040008F20400056
S214402070952040009B2040009F204000A320400029
S214402080A7204000AB2040004FF4FA4310E04FF446
S21440209000430DE04FF400430AE0084B08E0084BCD
S2144020A006E0084B04E0074B02E0064B00E0002346
S2144020B018460C37BD4680BC704700BF00093D003F
S2144020C000127A00001BB70080B500AF0620044B14
S2144020D09847024613469B0013449B00184680BD13
S2144020E05520400080B500AF024B984703465B083A
S2144020F0184680BDC920400080B582B000AF0021A0
S21440210009480A4B984778607B6803F01003002B19
S21440211006D0074B1B78DBB20133DAB2044B1A7099
S21440212000BF0837BD4680BD00000140DB014000CF
S214402130EC04002090B587B002AF184B9847F86083
S2144021401720174B9847391D07F10802FB68009384
S2144021500B46F9680120134CA0477B6843F4804344
S2144021601A4600211048114B9847BB68FA68B2FBE4
S214402170F3F31A4600210C480D4B984717200D4B99
S21440218098471022002108480B4B984700210648E4
S2144021900A4B984700BF1437BD4690BDE520400027
S2144021A02D164000FD01400000000140390140006E
S2144021B0910140001D204000B501400071014000E3
S2144021C080B483B000AF0346FB7197F90730002B0D
S2144021D00BDB084997F907305B09FA7902F01F02D2
S2144021E0012000FA02F241F8232000BF0C37BD461A
S2144021F080BC704700E100E080B483B000AF7860F8
S2144022007B68072B25D801A252F823F02D224000E8
S21440221033224000392240003F2240004322400003
S214402220472240004B2240004F2240004FF4FA43E2
S21440223010E04FF400430DE04FF400430AE0084B33
S21440224008E0084B06E0084B04E0074B02E0064B6C
S21440225000E0002318460C37BD4680BC704700BFE0
S21440226000093D0000127A00001BB70080B500AFA1
S2144022700620044B9847024613469B0013449B0097
S214402280184680BDF921400080B500AF024B984704
S21440229003465B08184680BD6D22400080B582B07C
S2144022A000AF78607868034B984700BF0837BD4654
S2144022B080BD00BF2D16400080B582B000AF0B48F1
S2144022C00B4B984778607B6803F48053002B09D00B
S2144022D008490648084B9847064B1B68DBB2184629
S2144022E0064B984700BF0837BD4680BD00400240B9
S2144022F0BD084000D804002081094000C1244000A9
S21440230080B584B000AF786039600C4B98470023A6
S214402310FB6007E00A4AFB68134400221A70FB6819
S2144023200133FB60FB68B3F57A7FF3DB054B002295
S2144023301A6000BF1037BD4680BD00BFED24400088
S214402340F0040020E004002080B483B000AF786042
S2144023503960044B01221A6000BF0C37BD4680BC72
S214402360704700BFDC040020B0B586B000AF4FF029
S214402370006105201C4B98474FF0006106201A4B21
S21440238098474FF000610820174B9847174B3C463C
S2144023901D460FCD0FC495E8030084E80300144B98
S2144023A098470246134B1A600E20134B9847114B22
S2144023B01A683B4619461148114B98474FF0FF3173
S2144023C00E48104B98470D480F4B98470B480F4BFD
S2144023D09847012109480E4B98470E200D4B9847C9
S2144023E000BF1837BD46B0BD0D124000903D4000BE
S2144023F089224000E40400209D2240000040024024
S214402400E9074000A308400029084000590840005A
S21440241089084000C121400090B583B002AF0B2030
S2144024200B4B98470B4B009370234FF480520B2175
S21440243009480A4CA0470B20094B98474FF4805157
S2144024400548084B984700BF0437BD4690BD00BFBF
S2144024502D16400001234000000E0E40A90A400001
S214402460C1214000AB11400090B583B002AF0B20B5
S2144024700C4B98470A2201210B480C4B98470C4BB3
S2144024800093792301220B2107480A4CA0470B20D2
S214402490094B984701210448084B984700BF04372A
S2144024A0BD4690BD2D164000000E0E40170F400052
S2144024B049234000A90A4000C1214000AB1140001A
S2144024C080B483B000AF0346FB71064B1B685A1CB2
S2144024D004490A600449FA79CA5400BF0C37BD461D
S2144024E080BC7047E0040020F004002080B400AFB9
S2144024F000BFBD4680BC704780B582B000AF7860F4
S2144025000B46FB7079681048104B984700BF104B3D
S2144025101B78DBB2FA789A428CBF01230023DAB2EA
S2144025200C4B1B68002B0CBF01230023DBB213406F
S214402530DBB2002BEBD1064B1B78DBB2FA789A4223
S2144025400837BD4680BD00BF0040024051094000EC
S214402550EC040020D804002080B582B000AF78603C
S2144025607868034B984700BF0837BD4680BD00BF1C
S2144025702D16400080B500AF0B20034B98470C202B
S214402580014B984700BF80BD5925400080B48DB0B0
S21440259000AF786039607B68FB623B68BB62FB6A71
S2144025A07B627B6A5A09FB6A3B623B6A03F01F0305
S2144025B0012101FA03F3FA61BB61BB6A7B61FB69E7
S2144025C03B613B6903F5001303F207735B02FB6054
S2144025D07B6903F00803002B03D0FB68BA695A6690
S2144025E002E0FB68BA691A667B6903F01003002BA9
S2144025F004D0FB68BA69C3F8942003E0FB68BA6964
S214402600C3F890207B6903F02003002B03D0FB68BF
S214402610BA691A6502E0FB68BA695A657B6903F0D5
S214402620C003002B03D0FB68BA691A6202E0FB685D
S214402630BA695A627B6903F08003002B04D0FB68BA
S214402640BA69C3F8842003E0FB68BA69C3F88020FF
S2144026507B6903F00103002B06D0FB681A6FBB6949
S2144026601A43FB681A6706E0FB681A6FBB69DB43D0
S2144026701A40FB681A677B6903F00203002B06D0FA
S214402680FB685A6FBB691A43FB685A6706E0FB68EB
S2144026905A6FBB69DB431A40FB685A6700BF343742
S2144026A0BD4680BC704780B48DB000AF78600B46A6
S2144026B0FB707B68FB62FB7887F82B30FB6A7B629B
S2144026C07B6A3B623B6A5B09FB61FB6903F500136F
S2144026D003F207735B02BB6197F82B30012B09D1DD
S2144026E0FB6A7B617B6903F01F0301229A40BB694A
S2144026F01A610CE097F82B30002B08D1FB6A3B613F
S2144027003B6903F01F0301229A40BB695A61FB6A8A
S214402710FB60FB6803F01F0301229A40BB69C3F8C5
S214402720A02000BF3437BD4680BC704780B48BB015
S21440273000AF78600B46FB707B687B62FB7887F85F
S21440274023307B6AFB61FB69BB61BB695B097B61CC
S2144027507B6903F5001303F207735B023B6197F84E
S2144027602330002B09D07B6AFB60FB6803F01F0315
S21440277001229A403B691A6308E07B6ABB60BB68EB
S21440278003F01F0301229A403B695A6300BF2C376F
S214402790BD4680BC7047000080B500AF0D4B9847E3
S2144027A0012113200C4B9847012113200B4B9847CF
S2144027B000210020084B984708210020084B9847E6
S2144027C001210720044B984700210720034B9847D8
S2144027D000BF80BD75254000A72640002D2740003D
S2144027E08D25400080B584B000AF274BFB60274B5B
S2144027F0BB60FA68BB689A420DD907E0BB681A1DF1
S214402800BA60FA68111DF96012681A60BB68204AFF
S2144028109342F3D320E0FA68BB689A421CD21C4A23
S2144028201A4BD31A7B60FA687B681344043BFB6000
S214402830BA687B681344043BBB600AE0BB681A1F57
S214402840BA60FA68111FF96012681A607B68043B28
S2144028507B607B68002BF1D100BF0E4BBB6004E071
S214402860BB681A1DBA6000221A60BB680A4A9342C7
S214402870F6D30A4BFB600A4AFB689360094B9847BD
S214402880094B9847FEE700BF0C3E40000000002082
S2144028903C0400203C040020FC08002000004000CF
S2144028A000ED00E009304000F12B400080B400AF5E
S2144028B0FEE7000080B400AF5D4B1B6B03F00303E4
S2144028C0032B00F2968001A252F823F0DD28400048
S2144028D0FD2840004729400047294000554B5B698A
S2144028E003F08003002B04D0534B4FF400421A6091
S2144028F080E0514B4FF4FA421A607BE04C4B1B6A27
S21440290003F08073002B03D04B4B4C4A1A6071E0A7
S214402910494B4B4A1A60464B1B6A03F07003102B18
S21440292008D0202B0AD0002B00D00BE0424B444A64
S2144029301A6007E0404B434A1A6003E03E4B3F4A6A
S2144029401A6000BF56E03A4B1B6A03F08073002BB8
S21440295003D0394B394A1A6019E0374B384A1A6067
S214402960334B1B6A03F07003102B08D0202B0AD081
S214402970002B00D00BE0304B314A1A6007E02E4B5C
S214402980304A1A6003E02C4B2C4A1A6000BF284B92
S2144029901B6B03F00303022B15D1254B9B6A1B0CC4
S2144029A0C3F30A030133244A126802FB03F3224AA4
S2144029B013601F4B9B6ADBB21F4A1268B2FBF3F3ED
S2144029C01D4A136016E01A4BDB6A1B0CC3F30A035E
S2144029D00133194A126802FB03F3174A1360144B7B
S2144029E0DB6ADBB2144A1268B2FBF3F3124A136096
S2144029F000E000BF0E4B1B6B03F07003702B08D13A
S214402A000D4B1B68104AA2FB03235B080A4A13605F
S214402A100AE0074B1B6B1B0903F00703064A1268C4
S214402A2022FA03F3044A136000BFBD4680BC7047D9
S214402A3000040E4010140E400C000020001BB7008F
S214402A4000093D0000127A00ABAAAAAA80B483B05F
S214402A5000AF78607B68184A934204D8174B4FF013
S214402A6080621A6023E07B68154A934203D8134B72
S214402A70144A1A601BE07B68134A934203D80F4BF4
S214402A80124A1A6013E07B68114A934203D80B4BF4
S214402A90104A1A600BE07B680F4A934204D8074BF3
S214402AA04FF004221A6002E0044B0C4A1A6000BF42
S214402AB00C37BD4680BC7047FF2C3101000A0E40E3
S214402AC0FF59620200010004FF86930300020004DF
S214402AD0FFB3C40400030004FFE0F505000500044E
S214402AE080B483B000AF78607B68072B25D801A2FE
S214402AF052F823F0152B40001B2B4000212B4000A2
S214402B00272B40002B2B40002F2B4000332B400020
S214402B10372B40004FF4FA4310E04FF400430DE0EB
S214402B204FF400430AE0084B08E0084B06E0084B29
S214402B3004E0074B02E0064B00E0002318460C3743
S214402B40BD4680BC704700BF00093D0000127A00B9
S214402B50001BB70080B500AF0620044B98470246DE
S214402B6013469B0013449B00184680BDE12A400054
S214402B7080B500AF024B984703465B08184680BDB9
S214402B80552B400080B48BB000AF78600B46FB708E
S214402B907B687B62FB7887F823307B6AFB61FB6946
S214402BA0BB61BB695B097B617B6903F5001303F27C
S214402BB007735B023B6197F82330002B09D07B6A92
S214402BC0FB60FB6803F01F0301229A403B691A63CF
S214402BD008E07B6ABB60BB6803F01F0301229A4093
S214402BE03B695A6300BF2C37BD4680BC7047000027
S214402BF0F8B500AF2D4B98472D482E4B98472E4B97
S214402C0098472E4B98472E4B98472E4B98472E4B1F
S214402C1098472E4B98472E4B9847002113202D4B14
S214402C2098472D4B9847034619464FF000020B46EF
S214402C301446DB1844EB04045B1844EB02046601BC
S214402C4046EAD3665D015B1944EB06045B1844EB29
S214402C50020443F2AF614FF000025D1844EB0206F7
S214402C60284631461D4C43F2B0624FF00003A04761
S214402C7003460C4618461A4B984701211320154B1D
S214402C80984702211748184B984702211748164B79
S214402C909847174B1B68002BFBD0154B00221A6039
S214402CA003211448104B9847F3E700BF7D0E4000C1
S214402CB050140E40790B4000992740006919400097
S214402CC0411A400035214000692340001924400045
S214402CD069244000852B4000712B4000F92C4000B1
S214402CE001000020A83D4000F9244000BC3D4000C3
S214402CF0DC040020D03D400053B94AB9002908BF43
S214402D0000281CBF4FF0FF314FF0FF3000F07AB97B
S214402D10ADF1080C6DE904CE00F006F8DDF804E0ED
S214402D20DDE9022304B070472DE9F0478C460D4696
S214402D300446089E002B51D18A4217466DD9B2FAF6
S214402D4082FEBEF1000F0BD0CEF1200C01FA0EF53C
S214402D5020FA0CFC02FA0EF74CEA050C00FA0EF4C8
S214402D604FEA174A250CBCFBFAF81FFA87F90AFB0C
S214402D7018CC45EA0C4508FB09F3AB420AD9ED19D5
S214402D8008F1FF3280F02381AB4240F22081A8F167
S214402D9002083D44ED1AA4B2B5FBFAF00AFB105502
S214402DA044EA054400FB09F9A14509D9E41900F1B4
S214402DB0FF3380F00A81A14540F2078102383C4447
S214402DC0A4EB090440EA08400021002E61D024FA12
S214402DD00EF4002334607360BDE8F0878B4207D959
S214402DE0002E54D0002186E821000846BDE8F08732
S214402DF0B3FA83F1002940F08E80AB4202D3824280
S214402E0000F2FA80841A65EB03050120AC46002EDA
S214402E103FD086E81010BDE8F08712B90127B7FB0F
S214402E20F2F7B7FA87FEBEF1000F34D1EB1B3A0C2F
S214402E301FFA87FC0121B3FBF2F8250C02FB18337E
S214402E4045EA03450CFB08F3AB4207D9ED1908F1F8
S214402E50FF3002D2AB4200F2D1808046ED1AA3B2D8
S214402E60B5FBF2F002FB105543EA05440CFB00FCB0
S214402E70A44507D9E41900F1FF3302D2A44500F275
S214402E80B8801846A4EB0C0440EA08409DE731465B
S214402E903046BDE8F087CEF1200405FA0EF307FA77
S214402EA00EF720FA04F83A0C25FA04F448EA030828
S214402EB0B4FBF2F14FEA184502FB11441FFA87FCB7
S214402EC045EA044501FB0CF3AB4200FA0EF409D97F
S214402ED0ED1901F1FF3080F08A80AB4240F28780E6
S214402EE002393D44EB1A1FFA88F5B3FBF2F002FBB9
S214402EF0103345EA034500FB0CF3AB4207D9ED1906
S214402F0000F1FF386FD2AB426DD902383D44EB1A20
S214402F1040EA01418FE7C1F1200722FA07F88B40CB
S214402F2005FA01F448EA030320FA07FE4FEA134C79
S214402F30FD404EEA040EB5FBFCF94FEA1E440CFB7E
S214402F4019551FFA83F844EA054509FB08F4AC42D4
S214402F5002FA01F200FA01FA08D9ED1809F1FF3039
S214402F6043D2AC4241D9A9F102091D442D1B1FFA98
S214402F708EFEB5FBFCF00CFB10554EEA054400FBFC
S214402F8008F8A04507D9E41800F1FF3529D2A04536
S214402F9027D902381C4440EA0940A4EB0804A0FBA9
S214402FA002894C45C6464D4615D312D056B1BAEBAB
S214402FB00E0364EB050404FA07F7CB401F43CC40EE
S214402FC0376074600021BDE8F0871846F8E6904602
S214402FD0E0E6C245EAD2B8EB020E69EB03050138DB
S214402FE0E4E72846D7E7404691E78146BEE70146F4
S214402FF078E702383C4445E7084608E7A8F1020867
S2144030003D442BE7704700BF70B50F4E0F4D761B03
S214403010B61018BF002405D0013455F8043B984735
S214403020A642F9D10A4E0B4D761B00F0D9FEB610DB
S21440303018BF002406D0013455F8043B9847A642F2
S214403040F9D170BD70BD00BFEC3D4000EC3D400086
S214403050F43D4000EC3D4000024B13B1024800F006
S21440306005B8704700000000793040000023014654
S2144030701A46184600F01EB838B50A4C0A4D641B6E
S214403080A4100AD004F18043013B05EB8305013CC4
S21440309055F804399847002CF9D1BDE8384000F07F
S2144030A0A9BE00BF043E4000003E4000704700BF3F
S2144030B0704700BF2DE9F8432C4D064628689846D1
S2144030C00F469146FFF7F2FF294B1C68D4F848316B
S2144030D0002B3ED05A681F2A1CDC02F1010E76B146
S2144030E003EB82010124C1F88890D3F8880194400C
S2144030F02043022EC3F88801C1F8088123D002324B
S214403100C3F804E0286843F82270FFF7D1FF002098
S214403110BDE8F883174B0BB34FF4C870AFF300808D
S2144031200346D8B1D4F848210260002141600A46DF
S214403130C4F848014FF0010EC0F88811C0F88C1151
S214403140002EDCD0CCE7D3F88C110C43C3F88C416E
S214403150D5E704F5A673C4F84831BBE72868FFF7FF
S214403160A7FF4FF0FF30BDE8F88300BF38040020CB
S214403170DC3D400000000000FF002CFF2EDFFF017A
S2144031803C3211010902042813E514482C0C33780C
S2144031903A333BFB3E0043111610399235DA221A79
S2144031A037C3230034C0361A068807C00D870E4141
S2144031B04C0048005B0042034A8121992440253850
S2144031C026825C006300617062807C052080283027
S2144031D06C006D806E007002719473C112401711BE
S2144031E0184319001A4B320937C04F6050A86D007B
S2144031F03D38463F4F600C3CFF00E57FF9C0412418
S214403200E01476FF33A0422043184C0087D5883F11
S214403210D703D910D382C808C9807C007D007C03C0
S2144032207D487D487C087D207D107D0E9000910E67
S214403230911A9131915A91699175917E9188918FA9
S214403240919691A391AF91C491D791E89120920025
S214403250930693E39305930593009304930093009A
S2144032609300930093009300930096009708971955
S2144032709702970C97249730972897269702979807
S214403280978097009700C3EDA400A800C511C651CB
S214403290BF80C710B666B8A5B764B97CB3AFB4975D
S2144032A0B5FFB0C5B194B20FC45CC064C14B8C00CE
S2144032B0863D500051C852965300540055005AC897
S2144032C05B965C00D300C3ED7F00DA00E51FE16744
S2144032D0E000DD7F05001240D304C016C1128C000A
S2144032E0863D5000512C52245300540055005A2C11
S2144032F05B245C00FFFF0000FF000500DA10D703E8
S214403300DF0033803C40E1770000FFFFE014E177C8
S214403310E51FD703DA10E000FF010408FFFF0000B6
S214403320FF0112401711184319001A4B32094FCAB1
S21440333050A85A236D00391235DA221A37C32300B3
S21440334034C0361A068807C00D870E414C00FF0071
S214403350E004C064C14B8635508951C8529653002C
S2144033605400550057005A505B3C5C00E000FFFF9D
S214403370FF011101120017111875323619011A97FC
S214403380030F37404FBB509C5A576D803D3439022F
S2144033903588220A374034A006020DB70E01FF00DA
S2144033A0E004C0C8C196863D50895190522C5300C7
S2144033B05400558857005AA05B785C00D304E00060
S2144033C0FFFF0000FF011101120017111875323679
S2144033D019011A97030F37404FBB509C5A576D80C0
S2144033E03D3439023588220A374034A006020DB7EC
S2144033F00E01FF00E004C0C8C19686355089519042
S214403400522C53005400558857005AC85B965C00AF
S214403410D302E000FFFF0000FF0111011200171168
S2144034201875323619011A97030F37404FBB509C18
S2144034305A576D803D3439023588220A374034A0C9
S21440344006020DB70E01FF00C0C8C1968C00863D2F
S21440345050005190522C5300540055885A005BC07F
S2144034605C01D302FFFF0000FF011101120017119B
S2144034701875323619011A97030F37404FBB509CC8
S2144034805A576D803D3439023588220A374034A079
S21440349006020DB70E01FF00E004C0C8C196863D87
S2144034A050005190522C53005400558857005A40B3
S2144034B05BF05C01D302E000FFFF0000FF0111015A
S2144034C0120017111875323619011A97030F374034
S2144034D04FBB509C5A576D803D3439023588220A7E
S2144034E0374034A006020DB70E01FF00E004C0C806
S2144034F0C196863D50005190522C5300540055883A
S21440350057005A905B2C5C05D302E000FFFF00009A
S2144035100E001280FE05130011051200D5100CD4C3
S2144035200D341601172518A019031AF01B8922031B
S21440353029182BF82C0131A032F033C43AB4363F68
S214403540046027803D0F3E803F40407F416A4229CD
S21440355044E54541470249644AA14B704C1A4D50D8
S2144035604E1364006788681A1438243C2530267247
S2144035705097517E52005300200021233814E90012
S214403580565557FF58FF59FF5F04EC0013FF807FE6
S214403590813F823283013811850086038701880582
S2144035A089308D308F859330958599309B859C08E2
S2144035B09D129E239F45A055A164A272A37FA48B13
S2144035C0A595A6A7A7B5A8CBA9DDAAECAB1ACE7839
S2144035D0CF6ED00AD10CD284D390D41E5A245B1F0F
S2144035E05C885D60AC6EBEFFBF0031503278823F73
S2144035F01200363F530033C41B8922032802FFFFC4
S2144036000E001280FE05130011031200D5100CD4D4
S2144036100D341601172518A019031AF01B8922032A
S21440362029182BF82C0131A032F033C43AB4363F77
S214403630046027803D0F3E803F40407F416A4229DC
S21440364044E54541470249644AA14B704C1A4D50E7
S2144036504E1364006788681A1438243C2530267256
S2144036605097517E52005300200021233814E90021
S214403670565557FF58FF59FF5F04EC0013FF807FF5
S214403680813F823283013811850086038701880591
S21440369089308D308F859330958599309B859C08F1
S2144036A09D129E239F45A055A164A272A37FA48B22
S2144036B0A595A6A7A7B5A8CBA9DDAAECAB1ACE7848
S2144036C0CF6ED00AD10CD284D390D41E5A245B1F1E
S2144036D05C885D60AC6EBEFFBF0031503278823F82
S2144036E01200363F530033C41B8922032802FFFFD3
S2144036F00E001280FE05130011021200D5100CD4E5
S2144037000D341601172518A019031AF01B89220339
S21440371029182BF82C0131A032F033C43AB4363F86
S214403720046027803D0F3E803F40407F416A4229EB
S21440373044E54541470249644AA14B704C1A4D50F6
S2144037404E1364006788681A1438243C2530267265
S2144037505097517E52005300200021233814E90030
S214403760565557FF58FF59FF5F04EC0013FF807F04
S214403770813F8232830138118500860387018805A0
S21440378089308D308F859330958599309B859C0800
S2144037909D129E239F45A055A164A272A37FA48B31
S2144037A0A595A6A7A7B5A8CBA9DDAAECAB1ACE7857
S2144037B0CF6ED00AD10CD284D390D41E5A245B1F2D
S2144037C05C885D60AC6EBEFFBF0031503278823F91
S2144037D01200363F530033C41B8922032802FFFFE2
S2144037E00E001280FE05130011011200D5100CD4F5
S2144037F00D341601172518A019031AF01B89220349
S21440380029182BF82C0131A032F033C43AB4363F95
S214403810046027803D0F3E803F40407F416A4229FA
S21440382044E54541470249644AA14B704C1A4D5005
S2144038304E1364006788681A1438243C2530267274
S2144038405097517E52005300200021233814E9003F
S214403850565557FF58FF59FF5F04EC0013FF807F13
S214403860813F8232830138118500860387018805AF
S21440387089308D308F859330958599309B859C080F
S2144038809D129E239F45A055A164A272A37FA48B40
S214403890A595A6A7A7B5A8CBA9DDAAECAB1ACE7866
S2144038A0CF6ED00AD10CD284D390D41E5A245B1F3C
S2144038B05C885D60AC6EBEFFBF0031503278823FA0
S2144038C01200363F530033C41B8922032802FFFFF1
S2144038D00E001280130011011200D5100C120D3488
S2144038E0172518A019031AF01B89220329182BF84C
S2144038F02C0131A032F033C43AB4363F04602780FE
S2144039003D0F3E803F40407F416A422944E5454165
S214403910470249644AA14B704C1A4D504E136400FE
S2144039206788681A1438243C253026725097517E92
S21440393052005300200021233814E900565557FF03
S21440394058FF59FF5F04EC0013FF807F813F8232AF
S2144039508301381184708500860387018805893085
S2144039608D308F859330958599309B859C089D1228
S2144039709E239F45A055A164A272A37FA48BA595C4
S214403980A6A7A7B5A8CBA9DDAAECAB1ACE78CF6E72
S214403990D00AD10CD284D390D41E5A245B1F5C88A4
S2144039A05D60AC6EBEFFBF0031503278823F120180
S2144039B0362F8304530033F41B8A2203840084008A
S2144039C02802FFFF0E001280130011011200D510CE
S2144039D00C540D341601172518A019031AF01B892C
S2144039E0220329182BF82C0131A032F033C43AB404
S2144039F0363F046027803D0F3E803F40407F416A0F
S214403A00422944E54541470249644AA14B704C1A55
S214403A104D504E1364006788681A1438243C25308D
S214403A2026725097517E52005300200021233814AE
S214403A30E900565557FF58FF59FF5F04EC0013FF47
S214403A40807F813F823283013811847085008603EF
S214403A508701880589308D308F85933095859930DC
S214403A609B859C089D129E239F45A055A164A272EB
S214403A70A37FA48BA595A6A7A7B5A8CBA9DDAAEC3E
S214403A80AB1ACE78CF6ED00AD10CD284D390D41E47
S214403A905A245B1F5C885D60AC6EBEFFBF00312859
S214403AA0323C3400823F1200363F530033001B89BD
S214403AB022032802D900FFFF0E00128013001101D6
S214403AC01200D5100C120D34172518A019031AF041
S214403AD01B89220329182BF82C0131A032F033C45D
S214403AE03AB4363F046027803D0F3E803F40407FDB
S214403AF0416A422944E54541470249644AA14B7020
S214403B004C1A4D504E1364006788681A1438243C8B
S214403B10253026725097517E5200530020002123B4
S214403B203814E900565557FF58FF59FF5F04EC001C
S214403B3013FF807F813F8232830138118470850075
S214403B4086038701880589308D308F85933095852B
S214403B5099309B859C089D129E239F45A055A16445
S214403B60A272A37FA48BA595A6A7A7B5A8CBA9DDCF
S214403B70AAECAB1ACE78CF6ED00AD10CD284D390B2
S214403B80D41E5A245B1F5C885D60AC6EBEFFBF00CF
S214403B903128323C823F1201362F8304530033F4DF
S214403BA01B8A2203840084002802FFFF0E00128036
S214403BB0FE05130011021200D5100CD40D34160168
S214403BC0172518A019031AF01B89220329182BF869
S214403BD02C0131A032F033C43AB4363F046027801B
S214403BE03D0F3E803F40407F416A422944E5454183
S214403BF0470249644AA14B704C1A4D504E1364001C
S214403C006788681A1438243C253026725097517EAF
S214403C105200530020002123380784023814E9005C
S214403C20565557FF58FF59FF5F04EC0013FF807F3F
S214403C30813F8232830138118500860387018805DB
S214403C4089308D308F859330958599309B859C083B
S214403C509D129E239F45A055A164A272A37FA48B6C
S214403C60A595A6A7A7B5A8CBA9DDAAECAB1ACE7892
S214403C70CF6ED00AD10CD284D390D41E5A245B1F68
S214403C805C885D60AC6EBEFFBF0031503278823FCC
S214403C901200363F530033C41B8922032802FFFF1D
S214403CA00E001280FE05130011021200D5100CD42F
S214403CB00D341601172518A019031AF01B89220384
S214403CC029182BF82C0131A032F033C43AB4363FD1
S214403CD0046027803D0F3E803F40407F416A422936
S214403CE044E54541470249644AA14B704C1A4D5041
S214403CF04E1364006788681A1438243C25302672B0
S214403D005097517E52005300200021233814E9007A
S214403D10565557FF58FF59FF5F04EC0013FF807F4E
S214403D20813F8232830138118500860387018805EA
S214403D3089308D308F859330958599309B859C084A
S214403D409D129E239F45A055A164A272A37FA48B7B
S214403D50A595A6A7A7B5A8CBA9DDAAECAB1ACE78A1
S214403D60CF6ED00AD10CD284D390D41E5A245B1F77
S214403D705C885D60AC6EBEFFBF0031A032F0823F13
S214403D801200363F530033C41B8922032802FFFF2C
S214403D9000C20100C0000000000800000000000053
S214403DA000000000000000007365742073792063F3
S214403DB02070206F66660D0A000000007365742050
S214403DC0737920632065206F66660D0A0000000048
S214403DD07365747570207765620D0A0010000020C8
S214403DE0F8B500BFF8BC08BC9E4670475930400046
S214403DF0F1004000F8B500BFF8BC08BC9E467047CE
S208403E00CD0040006C
S20C403E0424EFFF7F01000000DF
S214403E0CBFF35F8F0138FBD17047000000093D00BF
S214403E1C00000000FC02002064030020CC030020BD
S214403E2C0000000000000000000000000000000041
S214403E3C0000000000000000000000000000000031
S214403E4C0000000000000000000000000000000021
S214403E5C0000000000000000000000000000000011
S214403E6C0000000000000000000000000000000001
S214403E7C00000000000000000000000000000000F1
S214403E8C00000000000000000000000000000000E1
S214403E9C00000000000000000000000000000000D1
S214403EAC00000000000000000000000000000000C1
S214403EBC00000000000000000100000000000000B0
S214403ECC0E33CDAB34126DE6ECDE05000B00000075
S214403EDC0000000000000000000000000000000091
S214403EEC0000000000000000000000000000000081
S214403EFC0000000000000000000000000000000071
S214403F0C0000000000000000000000000000000060
S21040423C0000000000000000D808002031
S8044027E5AF
