:020000040040BA
:10000000D0380020611140005D1140005D114000BA
:100010005D1140005D1140005D11400000000000D6
:100020000000000000000000000000005D11400022
:100030005D114000000000005D1140005D114000B6
:100040005D1140005D1140005D1140005D114000F8
:100050005D1140005D1140005D1140000000000096
:100060005D1140005D11400000000000510D400096
:10007000650D4000790D40005D1140005D114000AC
:1000800000000000000000005D1140005D11400014
:100090005D1140005D1140005D1140005D114000A8
:1000A0005D1140005D1140005D1140005D11400098
:1000B0005D1140005D1140005D1140005D11400088
:1000C0005D1140005D1140005D11400010B5054C10
:1000D000237833B9044B13B10448AFF300800123F4
:1000E000237010BD4404002000000000382A4000A6
:1000F0000C4B43B10C480D4910B5AFF300800C48D0
:10010000036823B910BD0A48036833B97047094B27
:10011000002BF7D0BDE810401847064B002BF5D058
:10012000184700BF00000000382A400048040020A3
:10013000382A40000000000010B50E480E4B9847CA
:100140003E2100200D4B98470D4CA0470028FCD0C5
:100150000C4B98470C4A0D4BDA620D4CA047002817
:10016000FCD010200B4B98470B4B98470148024B93
:10017000984710BD000E27071D134000ED0D4000ED
:10018000410E4000890E4000013F130000040E4064
:10019000950E40008D0D40000D12400070B54FF4DB
:1001A0000042674B5A604FF060514C20654CA047AD
:1001B00065490220A0474FF000610320A0474FF09F
:1001C00000610420A0474FF080512D20A0475F4DD3
:1001D00029464020A04729464120A04729464220E1
:1001E000A04729464320A04729464420A047294646
:1001F0004520A04729464620A04729464720A0473A
:1002000029464B20A04729464820A047504E31465A
:100210001620A04729465320A0474FF040514D20BB
:10022000A04729464020A04729464120A04729460B
:100230004220A04729464320A04729464420A04702
:1002400029464520A04729464620A0472946472061
:10025000A04729464B20A04729464820A0472946C9
:100260004E20A0474FF040514920A0472946522038
:10027000A04729465320A04729465420A047294695
:100280005520A04729465620A04729465720A04779
:1002900029465820A04729465920A04729465A20D8
:1002A000A04729465B20A04729465C20A047294655
:1002B0005D20A04729465E20A04729465F20A04731
:1002C00031461220A04731461320A0473146142062
:1002D000A04731460020A04731460120A0472946CB
:1002E0005020A0474FF060514A20A0474FF0605186
:1002F0004F20A0474FF040511520A04771211020FA
:10030000A04771210F20A04705F10055294618206C
:10031000A04729461920A04729461A20A047294668
:100320001B20A04729461C20A04729461D20A04786
:1003300029461E20A04729461F20A04770BD00BFA8
:1003400050140E40290B40007900002801000008DD
:100350000100001808B50B4620B911461846044B99
:10036000984708BD11461846024B984708BD00BF84
:10037000F9094000FD09400008B5014B984708BD48
:100380001510400008B5014B984708BDD510400036
:100390002DE9F04186B007464C1C0125114EDFF8CF
:1003A000488010E02178FF2918D08DF8043002959C
:1003B00021238DF814300495039201A93846B047E3
:1003C00008280CD00234224614F8013CFF2BE9D057
:1003D000FE2BEAD14AF26A70C047F3E7002006B06C
:1003E000BDE8F0818503400001000020F0B58DB02C
:1003F000074600230093019321268DF818600A23F5
:100400008DF8083001240394CDF810D0059402A98A
:10041000394DA8478DF82C600B238DF81C300894BB
:1004200001AB09930A9407A93846A847019B009A93
:1004300043EA0223C3F30723772B02D001200DB038
:10044000F0BD0023019302931C238DF81C30089407
:100450008DF82C6001AB09930A9407A93846A84788
:100460001D238DF81C3008948DF82C6002AB099385
:100470000A9407A93846A847019B7F2B01D0012089
:10048000DDE7029BA22BFAD1002300930193029394
:1004900001238DF81C30089321228DF82C200A931B
:1004A00001AB099307A93846134CA0470CABAD220A
:1004B00043F8282D099307A93846104B9847CDF8E3
:1004C00024D007A93846A047029B009A9A4201D03F
:1004D0000120B4E701AB099307A93846074B9847B9
:1004E000CDF824D007A93846034B9847019B0098C4
:1004F000C01A18BF0120A2E779034000850340001D
:1005000008B5082914D8DFE801F015051707090B0D
:100510000D0F11000B4910E00B490EE00B490CE0E8
:100520000B490AE00B4908E00B4906E00B4904E0DF
:10053000012008BD0A4900E00A490B4B98470020FA
:1005400008BD00BF601D4000401F40007C1B4000F4
:10055000881A4000941940003020400024214000B7
:10056000701C4000501E400091034000F0B482B067
:10057000C0F11100102828BF1020002808BF01205A
:100580000021104D4FF40056374618246F63019434
:10059000019B5A1E0192002BFAD12E630194019BFC
:1005A0005A1E0192002BFAD101318142EED34FF451
:1005B00000330193019B5A1E0192002BFAD102B025
:1005C000F0BC704700120E4082B04FF40052064B50
:1005D0005A634FF400330193019B5A1E0192002B82
:1005E000FAD102B0704700BF00120E40C0F30742BC
:1005F000034B1A70C0F307221A70C0B2187070470C
:10060000020000624FF0C44300221A7018700A0AF8
:1006100002331A70C9B219707047000082B000230B
:100620000193019B984211D90021094A0191019B34
:10063000934205D8019B01330193019B9342F9D961
:10064000019B01330193019B8342EFD302B07047BA
:100650009F86010008B540F233110720014B9847EF
:1006600008BD00BF05064000044A131F02F56F7263
:1006700043F8040F9342FBD1704700BF6004002091
:100680002DE9F0410C4690461F4686B23146502077
:10069000094DA84708F1FF31314489B25120A847DC
:1006A000A4B221465220A847791E214489B2532082
:1006B000A847BDE8F08100BF0506400038B50D46EB
:1006C00001462020024CA04729462120A04738BDE2
:1006D000050640004FF0C44300221A701A705F4AAA
:1006E0001178137843EA01231BB25D4A934201D08B
:1006F0000120704770B5054633210720594CA047AB
:1007000000211020A04701210020A0474FF4807154
:100710000120A0474FF4E0610220A04700210420FF
:10072000A04740F207210820A04700210920A04748
:1007300000210A20A04700210C20A04700210D2005
:10074000A04700210F20A04700211020A047002132
:100750001120A04700211220A04700211320A0470C
:10076000C820414EB04741F290211020A04740F2EE
:1007700027211120A0473220B0471B211220A0477B
:100780003220B0474FF488511320A0471921292067
:10079000A0470D212B20A0473220B0470021302058
:1007A000A0474FF401713120A0474FF4007132206F
:1007B000A04707213520A04741F204413620A04739
:1007C00040F205713720A04740F205313820A0479C
:1007D00040F207713920A04740F201713C20A04748
:1007E0000E213D20A0474DF210010320A0474FF4F9
:1007F00027416020A04701216120A04700216A20F5
:10080000A04700218020A04700218120A04700218F
:100810008220A04700218320A04700218420A047F8
:1008200000218520A04710219020A0474FF4C061EF
:100830009220A0474FF488719520A0476B682A68E2
:1008400000210846094CA047A868094B9847002199
:100850000846084B9847002070BD00BF02000062A8
:100860002593FFFF050640001D064000810640005D
:1008700069064000BD06400070B5064600210846E6
:10088000074B98474FF0C44300221A7022221A7077
:100890004FF49634034D3046A847013CFBD170BD60
:1008A000BD064000ED054000EF2815D8B1F5A07F4A
:1008B00001D30120704710B589B280B2074B984729
:1008C0004FF0C44300241C7022221A70044B186895
:1008D000044B9847204610BD01207047BD064000DC
:1008E00060040020ED05400070B504460D46064E3C
:1008F000B047A9B2A0B2054B98474FF0C4430022BD
:100900001A7022221A7070BD81064000BD06400098
:100910002DE9F04F85B0039002921378002B48D058
:100920008B460190DFF8948033E00BF1100B039BB2
:10093000019329E0013CB4F1FF3F09D02B7823411A
:1009400013F0010FF6D0AAEB04013046C047F1E7DF
:1009500007240BF10F0902E0013C012C09D07B7840
:10096000234113F0010FF7D0A9EB04013046C04733
:10097000F2E702350136009BB34202D007242F462E
:10098000DCE7019B0C330193029A12F8013F0292BB
:100990007BB10A2BC9D003EB8303074D05EB83031F
:1009A000A3F52075019E33460A3300930BF1070A25
:1009B000E4E705B0BDE8F08F14224000A90840002C
:1009C00009014250704700EB01114A60704700EB8B
:1009D00001118A60704700EB0111CA607047C0F8CE
:1009E000841053004FF40042B2FBF3F2013AC2F319
:1009F0000D02C0F88C207047016370474163704757
:100A00004264B1F1C05F39D013D8B1F1006F25D085
:100A1000B1F1805F0AD1036F13430367436F416FE6
:100A20000B4023EA02034367426070470029FBD171
:100A30007047B1F1205F20D009D8B1F1005FF3D148
:100A4000036F13430367436F13434367ECE7B1F14D
:100A5000405F12D0B1F1605F0FD0E5E710B4016FD5
:100A6000046FD34321401C4619400167436F416F17
:100A70000B4023404367426010BC7047036F016F17
:100A80000B4023EA02030367436F13434367CBE73B
:100A9000416412F0010F14BF4166016612F00A0FA3
:100AA00014BF0162416212F0020F07D112F0080F69
:100AB00018BFC0F88410416101607047C0F8801011
:100AC000F9E710B4019C416444B9016643B1016582
:100AD00042B941630161016010BC70474166F5E7AE
:100AE0004165F5E70163F5E712F0100F10D0C0F88B
:100AF000B01012F0200F14BFC0F8D410C0F8D010FE
:100B000012F0400F14BFC0F8C010C0F8C4107047F6
:100B1000C0F8B41070470164704741647047C06CFE
:100B20007047806C7047000070B582B00D46430975
:100B300003F5001303F207735C0201F0F043B3F115
:100B4000005F53D00AD8B3F1805F2DD0B3F1C05FFE
:100B50003BD0B3F1006F15D0002023E0B3F1405F2C
:100B600055D0B3F1605F52D0B3F1205FF4D100F003
:100B70001F0101262A4606FA01F120462F4B98470D
:100B800030460FE000F01F000126864032464FF04D
:100B9000006120462A4B984715F0010F14BF666686
:100BA0002666012002B070BD00F01F0001268640BD
:100BB00032464FF080512046214B984715F0010FE7
:100BC00014BF666626660120ECE700F01F000126D0
:100BD000864032464FF0C0512046194B984715F0D9
:100BE000010F14BF666626660120DBE700F01F00D8
:100BF0000126864032464FF000512046104B984760
:100C000015F0010F14BF666626660120CAE705F0DD
:100C1000605200F01F01012605EA06030093C5F3A8
:100C20008003B2F1605F14BF0022012206FA01F1D5
:100C30002046044CA0473046B4E700BF910A40006C
:100C4000010A4000C30A4000D0F8503143F00103CC
:100C5000C0F850310122014B1A607047A0080020F3
:100C6000D0F8503123F00103C0F850310022014B7D
:100C70001A607047A00800202DE9F84381460F460E
:100C8000124B984705464846114B9847054013D0EC
:100C9000104C04F1600603E0B4420DD010345DB195
:100CA0002068B842F8D161682942F5D0E3689847D6
:100CB000636825EA0305EFE7074B1B6823B1074B81
:100CC0001B680BB148469847BDE8F8831F0B4000EE
:100CD000230B400020080020A008002094080020DA
:100CE000F8B5184C2668062E29D84FF0000C64463B
:100CF000154F04E00134E4B2A446A64209D3A64647
:100D000025017D598D42F5D107EB04156D6895429B
:100D1000F0D10D4D4FEA0E1E05EB0E0445F80E10F6
:100D20006260A3600699E1600136664504BF05492B
:100D30000E6011461A46054B98470020F8BD012069
:100D4000F8BD00BF9008002020080020E90A4000FC
:100D500008B50B210148024B984708BD000E0E4014
:100D6000790C400008B50C210148024B984708BD9A
:100D700000100E40790C400008B50D210148024BCF
:100D8000984708BD00120E40790C4000164A136BBC
:100D900023F0700318431063936E13F0080F0AD109
:100DA0004FF4006310498A6E12F0080F03D1013B23
:100DB000F9D1012070470C4B1A6B42F003021A6301
:100DC0009B6E13F0080F0AD14FF4006306498A6E38
:100DD00012F0080F05D1013BF9D101207047002026
:100DE00070470020704700BF00040E40C8B9114A88
:100DF000136A090289B223F45C1323F0030343F45A
:100E00005C1343F001030B431362936E13F0010F65
:100E1000FBD0084A136A43F09B7343F48033136298
:100E2000704704490B6A044A1A40044B13430B628F
:100E3000704700BF00040E40FCFFC8FE02003701EF
:100E4000024B986E00F48030704700BF00040E40E3
:100E500010B40B4C4FF00053A3620A4B03EA00405E
:100E600040F00050D2B21043090201F47C51084313
:100E7000A0622246936E13F0020FFBD010BC7047A5
:100E800000040E400000FF070022014BDA627047A9
:100E900000040E40024B986E00F00400704700BF43
:100EA00000040E4022281ED81F280CD8114B9A6926
:100EB00001238340934318D0012303FA00F00D4B24
:100EC00018610020704720380A4BD3F8082101230D
:100ED000834093430BD0012303FA00F0054BC3F882
:100EE000000100207047012070470020704700205B
:100EF000704700BF00040E402A4B994249D8A3F521
:100F00007A5399422BD910B4274CA4FB0234A40B7A
:100F1000043C264B0B449B00B2FBF3F2043AFF2C3B
:100F200039D9002101316408FF2C0DD90729F9D1E5
:100F300013029BB2090401F4E0210B43E4B2234302
:100F40000361002010BC7047FF2AF1D90629EFD8B1
:100F500001315208FF2AEBD90629F9D9E8E74900FF
:100F6000B2FBF1F2043AFF2A11D9002301335208EF
:100F7000FF2A01D9072BF9D1110289B21B0403F40E
:100F8000E0230B43D2B21A430261002070470023D2
:100F9000F2E701207047FF2A88BF0021D8D800213E
:100FA000C6E700BF801A0600F11976050012FD3F62
:100FB00038B504460D464FF0FF338362036A802341
:100FC0000360036B08230360202303600423036092
:100FD0000A684968054B9847012814BF0020012082
:100FE0006B7A012B04BF4023236038BDF90E40000B
:100FF0000A4659B103780129C4BF417841EA032365
:10100000022A04DD827842EA032300E00023184626
:1010100070470000F8B5CC68002C4FD00B46054651
:101020008E68002068604A68120202F4407242F43E
:101030008052097C090401F4FE010A436A60E860F9
:1010400059681846224B9847E860012C0FD00123BD
:101050002B6000202B6A13F4807F36D147F22F518A
:1010600047F230574FF0010E4FF0020C19E0032306
:101070002B600120EEE70A4670460CE008B9C5F87F
:1010800000C013F0020FF6D070462B6B3370013C9A
:1010900001363A4664B12B6A13F4807F11D1511E98
:1010A0008AB1012CEAD013F0020FEED10A46F1E723
:1010B0002B6A13F0010FFBD02B6A00E001242046BD
:1010C000F8BD0524FBE70924F9E70524F7E700BF8D
:1010D000F10F400070B5CD68002D35D00B460446A9
:1010E0008E68002060600A7C120402F4FE024968E7
:1010F000090201F440710A436260E06059681846D1
:10110000154B9847E060236A13F4807F06D00525CD
:101110001BE05DB1236A13F4807F18D113F0040F34
:10112000F7D033786363013D0136F2E7236A13F4A5
:10113000807F0ED113F0040FF8D002232360236ABE
:1011400013F0010FFBD000E00125284670BD0525F6
:10115000FBE70525F9E700BFF10F4000FEE70000BF
:1011600008B5214B214A9A4228D9214B1E4A9A425E
:101170000CD2013B9B1A23F00303043313441B4995
:1011800051F8040B42F8040B9A42F9D100BF194BF5
:10119000194A9A420AD2013B9B1A23F003030433F3
:1011A0001344002142F8041B9A42FBD1134B144A0A
:1011B0009A60144B9847144B9847FEE70A4B0B4A2A
:1011C0009A42E3D20A4B0848181A1146043A0244DC
:1011D0000028DBD0C1F1040152F8040943F8040DE2
:1011E000CA42F9D1D2E700BF00000020382A4000EF
:1011F00044040020CC0800204404002000ED00E05E
:101200000000400025184000A91340003C4B1B6B18
:1012100003F00303032B0ED8DFE803F0021C383879
:10122000384B5B6913F0800F14BF4FF400424FF44A
:10123000FA42354B1A60324B1B6B03F07003702B74
:1012400055D02F4B1A6B3049C2F302120B68D340B2
:101250000B6070472A4B1B6A13F0807F03D02B4A28
:10126000294B1A60E7E72A4A274B1A60244B1B6A6E
:1012700003F07003102B05D0202BDCD1234A224B26
:101280001A60D8E7234A204B1A60D4E71C4B1B6A2C
:1012900013F0807F18D01D4A1B4B1A60184B1B6B34
:1012A00003F00303022B164A07BF916A926AD16AC0
:1012B000D26A1548C1F30A41036801FB0333D2B275
:1012C000B3FBF2F30360B6E7114A0F4B1A600C4B05
:1012D0001B6A03F07003102B05D0202BDED10B4AC4
:1012E000094B1A60DAE70B4A074B1A60D6E7064A41
:1012F00013680949A1FB03135B081360704700BF23
:1013000000040E4010140E400C000020001BB7001B
:1013100000093D0000127A00ABAAAAAA124B98421B
:1013200011D9124B984213D9114B984214D9114B31
:10133000984215D9104B984294BF4FF004220F4A9F
:101340000F4B1A6070474FF080620D4B1A60704768
:101350000C4A0B4B1A6070470B4A094B1A607047D6
:101360000A4A074B1A607047FF2C3101FF5962028D
:10137000FF869303FFB3C404FFE0F50500050004F6
:10138000000A0E40000100040002000400030004F3
:101390000122014B1A6070479C0800200122014B7A
:1013A0001A607047980800202DE9804887B0AB4B41
:1013B0009847AB4B9847012211460720A94B984705
:1013C0000A20A94EB047A94C4FF002320221204614
:1013D000DFF844A3D047A64A02212046DFF83C9319
:1013E000C847A44A02212046DFF83483C0470322BD
:1013F00002212046A04FB847F02302934FF4A07378
:101400000393002504956FF07F4305939B4B98470A
:1014100002A89B4B984710209A4B98479A4B9847A5
:101420009A489B4B98479B4A14212846DFF8B8B24C
:10143000D847994A50212846D8470A20B047974AAA
:1014400029462046D047964A29462046C847954A0D
:1014500029462046C047032229462046B8470B208C
:10146000B04704F560640A22042120468E4B984759
:101470008E4B0093792304220B212046DFF8A482AF
:10148000C0478B4D4FF400672F6004212046894BE5
:101490009847894B009301234FF400420B212046CB
:1014A000C0472F600B20B047D4F8503123F0010320
:1014B000C4F85031D4F8583143F00803C4F8583117
:1014C000D4F8503123F03003C4F85031D4F85031FF
:1014D00043F02003C4F85031D4F8503123F40073A2
:1014E000C4F85031D4F8503123F48063C4F850313B
:1014F0004FF4806271490120714B9847714B222251
:101500001A644FF480721A609A6812F4807FFBD0DC
:101510001320554B98476C4B02936C4B039302A9D5
:101520006B486C4B9847624B4FF40022C3F8802005
:10153000BFF34F8FBFF36F8FC3F88021002183F873
:1015400013131A60624D644C2846A0470128FBD053
:1015500002215F48614B98476148624B98474B486E
:101560004B4B98474B4A142100205F4CA0475F4AE1
:1015700050210020A047DFF8B0A15D4B1B68002B75
:10158000FBD000235A4A13604FF0C043594A1360FE
:10159000F023594A13804FF400415848454B98476F
:1015A000574A1368002BFCD04FF400415348554B69
:1015B00098475248544B98474E4B1968534B1A88DA
:1015C0004D4B1B8803FB02F39B104C4AD2F86C2155
:1015D00022B94A4AD2F87C21002A36D0474AD2F8AA
:1015E0007C2122B9454AC2F87811C2F87C31434BBC
:1015F000D3F8603113F0080FF9D04048444B9847B6
:1016000000203F4B18603B4B1D684FF0C4431870DF
:1016100003221A70D0238AF8003088238AF8003019
:101620004FF4A073F02201463A4CA0472C1D05F55B
:10163000163E0EF1040E6FF063096FF0CF0840F212
:10164000991C4FF49576FF25C4E02C4AC2F8681126
:10165000C2F86C310123C2F88831C8E73901400073
:101660009D014000510E4000A50E400000000E40BC
:1016700004040A0A0A001600D7094000C905400000
:10168000D50640006D05400055064000D0E0400002
:101690007908400094294000B82940000200030066
:1016A0000405040606000700DF0940009D13400002
:1016B00000E100E0170B40009113400000120E40C3
:1016C0005503400000040E40000E2707801A060054
:1016D00000800140B10F4000ED03400001054000D3
:1016E0006E5E88010100002011094000DC294000E5
:1016F00098080020A408002012000020000E0E40D0
:101700009C0800201B0B4000490C400010000020EA
:10171000610C4000E9084000C1094000C7094000D1
:10172000CF094000E10C400002000062AB468AF89D
:1017300000B003EB010B4FEA2B2BBBF1FF0F08DCD2
:10174000BBF1000F10DB5FFA8BFB03E04FF0000BE7
:10175000EDE7AB468AF800B011440912FF2906DC18
:10176000002914DBC9B203E04FF0000BF2E7294671
:101770008AF8001017F8021C103906FB01F1084422
:101780000012FF2805DC00280EDBC0B202E00021B9
:10179000EEE728468AF800000B441B12FF2B05DCFD
:1017A000002B0EDBDBB202E00020F3E72B468AF8C9
:1017B00000300A441212FF2A05DC002A2FDBD2B2C5
:1017C00002E00023F3E72A468AF800200434744537
:1017D0003FF4D3AE274614F8041C14F8013C803BB8
:1017E00014F8032C803A03EBC3108000803008FB10
:1017F00002FB09FB03B380330CFB02F28032103989
:1018000006FB01F100EB010B4FEA2B2BBBF1FF0FA5
:101810008CDCBBF1000F99DB5FFA8BFB87E70022C2
:10182000D2E700BF70B50F4E0F4D761BB61018BF34
:10183000002405D0013455F8043B9847A642F9D15D
:101840000A4E0B4D761B01F0E5F8B61018BF0024C8
:1018500006D0013455F8043B9847A642F9D170BD33
:1018600070BD00BF202A4000202A4000282A4000E6
:10187000202A4000024B13B1024800F005B870471F
:101880000000000095184000002301461A46184643
:1018900000F01EB838B50A4C0A4D641BA4100AD0DB
:1018A00004F18043013B05EB8305013C55F8043905
:1018B0009847002CF9D1BDE8384001F0B5B800BF19
:1018C000382A4000342A4000704700BF704700BFEC
:1018D0002DE9F8432C4D0646286898460F46914658
:1018E000FFF7F2FF294B1C68D4F84831002B3ED09B
:1018F0005A681F2A1CDC02F1010E76B103EB82014B
:101900000124C1F88890D3F8880194402043022E26
:10191000C3F88801C1F8088123D00232C3F804E07B
:10192000286843F82270FFF7D1FF0020BDE8F88354
:10193000174B0BB34FF4C870AFF300800346D8B118
:10194000D4F848210260002141600A46C4F84801E9
:101950004FF0010EC0F88811C0F88C11002EDCD0B9
:10196000CCE7D3F88C110C43C3F88C41D5E704F5D0
:10197000A673C4F84831BBE72868FFF7A7FF4FF00C
:10198000FF30BDE8F88300BF40040020102A40006B
:10199000000000000E001280130011011200D5108B
:1019A0000C120D34172518A019031AF01B892203F5
:1019B00029182BF82C0131A032F033C43AB4363F49
:1019C000046027803D0F3E803F40407F416A4229AE
:1019D00044E54541470249644AA14B704C1A4D50B9
:1019E0004E1364006788681A1438243C2530267228
:1019F0005097517E52005300200021233814E900F3
:101A0000565557FF58FF59FF5F04EC0013FF807FC6
:101A1000813F8232830138118470850086038701FB
:101A2000880589308D308F859330958599309B85D9
:101A30009C089D129E239F45A055A164A272A37F7E
:101A4000A48BA595A6A7A7B5A8CBA9DDAAECAB1A30
:101A5000CE78CF6ED00AD10CD284D390D41E5A2423
:101A60005B1F5C885D60AC6EBEFFBF003128323CFE
:101A7000823F1201362F8304530033F41B8A220362
:101A8000840084002802FFFF0E0012801300110161
:101A90001200D5100C540D341601172518A0190387
:101AA0001AF01B89220329182BF82C0131A032F0DF
:101AB00033C43AB4363F046027803D0F3E803F4038
:101AC000407F416A422944E54541470249644AA1B1
:101AD0004B704C1A4D504E1364006788681A1438C6
:101AE000243C253026725097517E5200530020002E
:101AF00021233814E900565557FF58FF59FF5F045A
:101B0000EC0013FF807F813F8232830138118470A3
:101B1000850086038701880589308D308F85933055
:101B2000958599309B859C089D129E239F45A055C5
:101B3000A164A272A37FA48BA595A6A7A7B5A8CBE5
:101B4000A9DDAAECAB1ACE78CF6ED00AD10CD28424
:101B5000D390D41E5A245B1F5C885D60AC6EBEFFC0
:101B6000BF003128323C3400823F1200363F530020
:101B700033001B8922032802D900FFFF0E001280C8
:101B8000130011011200D5100C120D34172518A0E6
:101B900019031AF01B89220329182BF82C0131A0F4
:101BA00032F033C43AB4363F046027803D0F3E80A4
:101BB0003F40407F416A422944E54541470249642C
:101BC0004AA14B704C1A4D504E1364006788681A36
:101BD0001438243C253026725097517E5200530011
:101BE000200021233814E900565557FF58FF59FFAC
:101BF0005F04EC0013FF807F813F82328301381144
:101C00008470850086038701880589308D308F8533
:101C10009330958599309B859C089D129E239F4506
:101C2000A055A164A272A37FA48BA595A6A7A7B572
:101C3000A8CBA9DDAAECAB1ACE78CF6ED00AD10C16
:101C4000D284D390D41E5A245B1F5C885D60AC6E36
:101C5000BEFFBF0031503278823F1201362F83041D
:101C6000530033F41B8A2203840084002802FFFF00
:101C70000E001280FE05130011051200D5100CD4C1
:101C80000D341601172518A019031AF01B89220319
:101C900029182BF82C0131A032F033C43AB4363F66
:101CA000046027803D0F3E803F40407F416A4229CB
:101CB00044E54541470249644AA14B704C1A4D50D6
:101CC0004E1364006788681A1438243C2530267245
:101CD0005097517E52005300200021233814E90010
:101CE000565557FF58FF59FF5F04EC0013FF807FE4
:101CF000813F823283013811850086038701880580
:101D000089308D308F859330958599309B859C08DF
:101D10009D129E239F45A055A164A272A37FA48B10
:101D2000A595A6A7A7B5A8CBA9DDAAECAB1ACE7836
:101D3000CF6ED00AD10CD284D390D41E5A245B1F0C
:101D40005C885D60AC6EBEFFBF0031503278823F70
:101D50001200363F530033C41B8922032802FFFFC1
:101D60000E001280FE05130011031200D5100CD4D2
:101D70000D341601172518A019031AF01B89220328
:101D800029182BF82C0131A032F033C43AB4363F75
:101D9000046027803D0F3E803F40407F416A4229DA
:101DA00044E54541470249644AA14B704C1A4D50E5
:101DB0004E1364006788681A1438243C2530267254
:101DC0005097517E52005300200021233814E9001F
:101DD000565557FF58FF59FF5F04EC0013FF807FF3
:101DE000813F82328301381185008603870188058F
:101DF00089308D308F859330958599309B859C08EF
:101E00009D129E239F45A055A164A272A37FA48B1F
:101E1000A595A6A7A7B5A8CBA9DDAAECAB1ACE7845
:101E2000CF6ED00AD10CD284D390D41E5A245B1F1B
:101E30005C885D60AC6EBEFFBF0031503278823F7F
:101E40001200363F530033C41B8922032802FFFFD0
:101E50000E001280FE05130011021200D5100CD4E2
:101E60000D341601172518A019031AF01B89220337
:101E700029182BF82C0131A032F033C43AB4363F84
:101E8000046027803D0F3E803F40407F416A4229E9
:101E900044E54541470249644AA14B704C1A4D50F4
:101EA0004E1364006788681A1438243C2530267263
:101EB0005097517E52005300200021233814E9002E
:101EC000565557FF58FF59FF5F04EC0013FF807F02
:101ED000813F82328301381185008603870188059E
:101EE00089308D308F859330958599309B859C08FE
:101EF0009D129E239F45A055A164A272A37FA48B2F
:101F0000A595A6A7A7B5A8CBA9DDAAECAB1ACE7854
:101F1000CF6ED00AD10CD284D390D41E5A245B1F2A
:101F20005C885D60AC6EBEFFBF0031503278823F8E
:101F30001200363F530033C41B8922032802FFFFDF
:101F40000E001280FE05130011011200D5100CD4F2
:101F50000D341601172518A019031AF01B89220346
:101F600029182BF82C0131A032F033C43AB4363F93
:101F7000046027803D0F3E803F40407F416A4229F8
:101F800044E54541470249644AA14B704C1A4D5003
:101F90004E1364006788681A1438243C2530267272
:101FA0005097517E52005300200021233814E9003D
:101FB000565557FF58FF59FF5F04EC0013FF807F11
:101FC000813F8232830138118500860387018805AD
:101FD00089308D308F859330958599309B859C080D
:101FE0009D129E239F45A055A164A272A37FA48B3E
:101FF000A595A6A7A7B5A8CBA9DDAAECAB1ACE7864
:10200000CF6ED00AD10CD284D390D41E5A245B1F39
:102010005C885D60AC6EBEFFBF0031503278823F9D
:102020001200363F530033C41B8922032802FFFFEE
:102030000E001280FE05130011021200D5100CD400
:102040000D341601172518A019031AF01B89220355
:1020500029182BF82C0131A032F033C43AB4363FA2
:10206000046027803D0F3E803F40407F416A422907
:1020700044E54541470249644AA14B704C1A4D5012
:102080004E1364006788681A1438243C2530267281
:102090005097517E520053002000212338078402BC
:1020A0003814E900565557FF58FF59FF5F04EC00FC
:1020B00013FF807F813F82328301381185008603C0
:1020C0008701880589308D308F85933095859930CB
:1020D0009B859C089D129E239F45A055A164A272DA
:1020E000A37FA48BA595A6A7A7B5A8CBA9DDAAEC2D
:1020F000AB1ACE78CF6ED00AD10CD284D390D41E36
:102100005A245B1F5C885D60AC6EBEFFBF0031501F
:102110003278823F1200363F530033C41B892203BA
:102120002802FFFF0E001280FE05130011021200AC
:10213000D5100CD40D341601172518A019031AF068
:102140001B89220329182BF82C0131A032F033C44B
:102150003AB4363F046027803D0F3E803F40407FC9
:10216000416A422944E54541470249644AA14B700E
:102170004C1A4D504E1364006788681A1438243C7A
:10218000253026725097517E5200530020002123A3
:102190003814E900565557FF58FF59FF5F04EC000B
:1021A00013FF807F813F82328301381185008603CF
:1021B0008701880589308D308F85933095859930DA
:1021C0009B859C089D129E239F45A055A164A272E9
:1021D000A37FA48BA595A6A7A7B5A8CBA9DDAAEC3C
:1021E000AB1ACE78CF6ED00AD10CD284D390D41E45
:1021F0005A245B1F5C885D60AC6EBEFFBF0031A0DF
:1022000032F0823F1200363F530033C41B89220351
:102210002802FFFF00000000000000000000000096
:1022200000000000000000000000000000000000AE
:10223000FFCCFFCC00000000000000000000000008
:10224000F000F00000000000F000F00000000000CE
:102250000CC00CC0FFFCFFFC0CC00CC0FFFCFFFC62
:102260000CC00CC00C601E703F303330FFFCFFFC14
:10227000333033F039E018C06000F00CF03C60F00F
:1022800003C00F003C18F03CC03C00183CF07FF845
:10229000C31CC78CCFCCDCEC7878303000FC00CC91
:1022A0000000000000004400EC00F8007000000096
:1022B00000000000000000000FC03FF078786018B8
:1022C000C00CC00C0000000000000000C00CC00CDE
:1022D000601878783FF00FC0000000000C600EE03E
:1022E00007C003803FF83FF8038007C00EE00C6092
:1022F00003000300030003003FF03FF0030003006E
:1023000003000300004400EC00F80070000000002F
:1023100000000000000000000300030003000300B1
:102320000300030003000300030003000018003C47
:10233000003C001800000000000000000000000049
:102340000000000C003C00F003C00F003C00F00057
:10235000C00000003FF07FF8E0FCC1CCC38CC70C8C
:10236000CE0CFC1C7FF83FF000000000300C700C1D
:10237000FFFCFFFC000C000C00000000300C701C87
:10238000E03CC07CC0ECC1CCC38CE70C7E0C3C0CA8
:1023900030307038E01CC00CC00CC30CC30CE31C04
:1023A0007FF83CF003C007C00EC01CC038C070C02E
:1023B000FFFCFFFC00C000C0FC30FC38CC1CCC0C87
:1023C000CC0CCC0CCC0CCE1CC7F8C3F03FF07FF883
:1023D000E31CC30CC30CC30CC30CE39C71F830F0BA
:1023E000C000C000C000C000C3FCC7FCCE00DC00C1
:1023F000F800F0003CF07FF8E79CC30CC30CC30C62
:10240000C30CE79C7FF83CF03C007E00E70CC30C5B
:10241000C31CC338C370E7E07FC03F8000000000EA
:10242000000018603CF03CF0186000000000000064
:1024300000000000000018443CEC3CF8187000005C
:10244000000000000000030007800FC01CE038708F
:102450007038E01CC00C00000CC00CC00CC00CC0DC
:102460000CC00CC00CC00CC00CC00CC00000C00CD8
:10247000E01C703838701CE00FC0078003000000BB
:1024800030007000E000C000C1ECC3ECC300E60007
:102490007E003C0030F071F8E39CC30CC3FCC3FC2D
:1024A000C00CE01C7FF83FF03FFC7FFCE0C0C0C0E8
:1024B000C0C0C0C0C0C0E0C07FFC3FFCFFFCFFFC50
:1024C000C30CC30CC30CC30CC30CE79C7FF83CF0DB
:1024D0003FF07FF8E01CC00CC00CC00CC00CE01C2E
:1024E00070383030FFFCFFFCC00CC00CC00CC00CBE
:1024F000C00CE01C7FF83FF0FFFCFFFCC30CC30CDA
:10250000C30CC30CC30CC30CC00CC00CFFFCFFFC01
:10251000C300C300C300C300C300C300C000C000A9
:102520003FF07FF8E01CC00CC00CC30CC30CE31CD4
:1025300073F833F0FFFCFFFC03000300030003000B
:1025400003000300FFFCFFFC00000000C00CC00CF7
:10255000FFFCFFFCC00CC00C000000000030003885
:10256000C01CC00CC00CC01CFFF8FFF0C000C000B5
:10257000FFFCFFFC078007800FC01CE0387070383C
:10258000E01CC00CFFFCFFFC000C000C000C000C5D
:10259000000C000C000C000CFFFCFFFC700038006D
:1025A0001F001F0038007000FFFCFFFCFFFCFFFC59
:1025B0001C000E000700038001C000E0FFFCFFFCD0
:1025C0003FF07FF8E01CC00CC00CC00CC00CE01C3D
:1025D0007FF83FF0FFFCFFFCC300C300C300C30053
:1025E000C300E7007E003C003FF07FF8E01CC00C19
:1025F000C0CCC0ECC07CE0387FFC3FECFFFCFFFCB3
:10260000C300C380C380C3C0C3C0E7707E3C3C1C12
:102610003C187E1CE70CC30CC30CC30CC30CC39C3E
:10262000E1F860F0C000C000C000C000FFFCFFFC8B
:10263000C000C000C000C000FFF0FFF8001C000C8C
:10264000000C000C000C001CFFF8FFF0FFC0FFE0C6
:1026500000700038001C001C00380070FFE0FFC054
:10266000FFF0FFF8001C003C00F800F8003C001CE4
:10267000FFF8FFF0F03CF87C1CE00FC007800780FB
:102680000FC01CE0F87CF03CFC00FE00070003805B
:1026900001FC01FC03800700FE00FC00C03CC07C84
:1026A000C0ECC1CCC38CC70CCE0CDC0CF80CF00C0D
:1026B00000000000FFFCFFFCC00CC00CC00C0000C0
:1026C00000000000300030000C000C00030003008C
:1026D00000C000C00030003000000000C00CC00C82
:1026E000C00CFFFCFFFC0000000000000C001C0000
:1026F00038007000E000E000700038001C000C00A2
:10270000000C000C000C000C000C000C000C000C69
:10271000000C000C00000000C000E0007000380059
:102720001800000000000000003006780EFC0CCC01
:102730000CCC0CCC0CCC0ECC07FC03F8FFFCFFFC43
:10274000030C030C030C030C030C039C01F800F0B6
:1027500003F007F80E1C0C0C0C0C0C0C0C0C0E1CD3
:102760000738033000F001F8039C030C030C030C42
:10277000030C030CFFFCFFFC03F007F80EDC0CCC91
:102780000CCC0CCC0CCC0EDC07D803900000030062
:102790003FFC7FFCE300E30070003000000000001D
:1027A0000318079C0FCC0CCC0CCC0CCC0CCC0CDC48
:1027B0000FF807F0FFFCFFFC030003000300030019
:1027C000038001FC00FC000000000000000000008D
:1027D0001BFC1BFC0000000000000000000000309B
:1027E0000038001C000C000C001CCFF8CFF00000DB
:1027F0000000FFFCFFFC00E001E003F007380E1CC6
:102800000C0C000000000000C00CC00CFFFCFFFC22
:10281000000C000C000000000FFC0FFC0E00070075
:1028200003C003C007000E000FFC0FFC0FFC0FFCE1
:10283000030007000E000C000C000E0007FC03FC58
:1028400003F007F80E1C0C0C0C0C0C0C0C0C0E1CE2
:1028500007F803F00FFC0FFC0CC00CC00CC00CC040
:102860000CC00FC007800300030007800FC00CC01E
:102870000CC00CC00CC00CC00FFC0FFC0FFC0FFCFC
:10288000038007000E000C000C000E000700030080
:102890000318079C0FCC0CCC0CCC0CCC0CCC0CFC37
:1028A0000E78063000000C000C00FFF0FFF80C1C46
:1028B0000C1C0C380C3000000FF00FF8001C000C42
:1028C000000C000C000C001C0FF80FF00FC00FE004
:1028D00000700038001C001C003800700FE00FC0B2
:1028E0000FF00FF8001C001C00F800F8001C001C82
:1028F0000FF80FF00C0C0E1C073803F001E001E09C
:1029000003F007380E1C0C0C0C000E00070C039C87
:1029100001F801F0038007000E000C000C0C0C1CE9
:102920000C3C0C7C0CEC0DCC0F8C0F0C0E0C0C0C1E
:102930000000030007803FF07CF8E01CC00CC00CD6
:10294000C00C0000030C030C3FFC7FFCE30CC30C29
:10295000C00CE00C700C300C0000C00CC00CC00CA3
:10296000E01C7CF83FF0078003000000C000C000BE
:10297000C000C000C000C000C000C000C000C00057
:10298000FFFCFFFCFFFCFFFCFFFCFFFCFFFCFFFC6F
:10299000FFFCFFFC4F563737343020696D616765A7
:1029A0002073656E736F720A63617074757265204F
:1029B0006578616D706C6500506C6561736520575A
:1029C00061697420647572696E67200A696E697442
:1029D00069616C697A6174696F6E0000506C656141
:1029E000736520507265737320627574746F6E0A1C
:1029F000746F2074616B6520616E6420646973700C
:102A00006C61790A612070696374757265000000F9
:102A100018000020F8B500BFF8BC08BC9E467047FF
:102A200075184000F1004000F8B500BFF8BC08BCC4
:082A30009E467047CD004000F6
:102A3800BFF35F8F0138FBD17047000000093D00EC
:102A48008002F000000000000000000004030020E5
:102A58006C030020D40300200000000000000000E8
:102A6800000000000000000000000000000000005E
:102A7800000000000000000000000000000000004E
:102A8800000000000000000000000000000000003E
:102A9800000000000000000000000000000000002E
:102AA800000000000000000000000000000000001E
:102AB800000000000000000000000000000000000E
:102AC80000000000000000000000000000000000FE
:102AD80000000000000000000000000000000000EE
:102AE80000000000000000000000000000000000DE
:102AF80001000000000000000E33CDAB34126DE67B
:102B0800ECDE05000B0000000000000000000000E3
:102B180000000000000000000000000000000000AD
:102B2800000000000000000000000000000000009D
:102B3800000000000000000000000000000000008D
:102B4800000000000000000000000000000000007D
:042E7800A808002086
:040000050040116145
:00000001FF
