:020000040040BA
:10000000F8340020ED044000E9044000E904400019
:10001000E9044000E9044000E90440000000000059
:10002000000000000000000000000000E9044000A3
:10003000E904400000000000E9044000E904400039
:10004000E9044000E9044000E9044000E9044000FC
:10005000E9044000E9044000E90440000000000019
:10006000E9044000E90440000000000011024000E3
:100070002502400000000000E9044000E9044000BF
:100080000000000000000000E9044000E904400016
:10009000E9044000E9044000E9044000E9044000AC
:1000A000E9044000E90440000000000000000000F6
:1000B00000000000E9044000E9044000E9044000B9
:1000C000E9044000E9044000E904400010B5054C93
:1000D000237833B9044B13B10448AFF300800123F4
:1000E000237010BD34040020000000000C09400003
:1000F0000C4B43B10C480D4910B5AFF300800C48D0
:10010000036823B910BD0A48036833B97047094B27
:10011000002BF7D0BDE810401847064B002BF5D058
:10012000184700BF000000000C0940003804002000
:100130000C094000000000002DE9F84381460F46FD
:10014000124B984705464846114B9847054013D037
:10015000104C04F1600603E0B4420DD010345DB1E0
:100160002068B842F8D161682942F5D0E368984721
:10017000636825EA0305EFE7074B1B6823B1074BCC
:100180001B680BB148469847BDE8F8835903400007
:100190005D03400050040020CC040020C404002073
:1001A000F8B5184C2668062E29D84FF0000C644686
:1001B000154F04E00134E4B2A446A64209D3A64692
:1001C00025017D598D42F5D107EB04156D689542E7
:1001D000F0D10D4D4FEA0E1E05EB0E0445F80E1042
:1001E0006260A3600699E1600136664504BF054977
:1001F0000E6011461A46054B98470020F8BD0120B5
:10020000F8BD00BFC00400205004002027034000B8
:1002100008B50B210148024B984708BD000E0E405F
:100220003901400008B50C210148024B984708BD30
:1002300000100E40390140004FF400434360704706
:100240000122014B1A607047C804002030B583B00A
:100250000B200E4B98470E4C0A224FF4000120460B
:100260000C4B98470C4B009349234FF400020B2191
:1002700020460A4DA8474FF40062094B1A604FF41C
:1002800000012046074B984703B030BD49044000A9
:10029000000E0E400D03400041024000A10140004D
:1002A00000E100E05503400010B50E480E4B9847A2
:1002B0003E2100200D4B98470D4CA0470028FCD054
:1002C0000C4B98470C4A0D4B9A620D4CA0470028E6
:1002D000FCD010200B4B98470B4B98470148024B22
:1002E000984710BD000E2707A9064000C50340002F
:1002F0001904400029044000013F132000040E406F
:10030000390440006103400099054000C0F88410A2
:1003100053004FF40042B2FBF3F2013AC2F30D0274
:10032000C0F88C20704712F0100F10D0C0F8B01039
:1003300012F0200F14BFC0F8D410C0F8D01012F083
:10034000400F14BFC0F8C010C0F8C4107047C0F808
:10035000B410704701647047C06C7047806C704780
:10036000174A136B23F0700318431063936E13F056
:10037000080F0AD14FF4006311498A6E12F0080F7A
:1003800003D1013BF9D1012070470D4A136B23F0D3
:10039000030343F002031363936E13F0080F0AD1B3
:1003A0004FF4006306498A6E12F0080F05D1013B35
:1003B000F9D101207047002070470020704700BF2E
:1003C00000040E40C8B9114A136A090289B223F425
:1003D0005C1323F0030343F45C1343F001030B436A
:1003E0001362936E13F0010FFBD0084A136A43F0B7
:1003F0009B7343F480331362704704490B6A044AC9
:100400001A40044B13430B62704700BF00040E40B8
:10041000FCFFC8FE02003701024B986E00F48030EA
:10042000704700BF00040E404FF00052014B9A622B
:10043000704700BF00040E40024B986E00F00200AF
:10044000704700BF00040E4022281ED81F280CD879
:10045000114B9A6901238340934318D0012303FA77
:1004600000F00D4B18610020704720380A4BD3F87C
:1004700008210123834093430BD0012303FA00F0AA
:10048000054BC3F800010020704701207047002091
:1004900070470020704700BF00040E4010B50B20CD
:1004A0000F4CA0470C20A0470E4B4FF480121A614E
:1004B000C3F8A0205A634FF400025A61C3F8A02089
:1004C0005A66C3F890205A655A62C3F880201A6FA2
:1004D00022F400021A675A6F22F400025A6710BD14
:1004E00049044000000E0E40FEE7000008B5214B15
:1004F000214A9A4228D9214B1E4A9A420CD2013BEA
:100500009B1A23F00303043313441B4951F8040BD3
:1005100042F8040B9A42F9D100BF194B194A9A428A
:100520000AD2013B9B1A23F0030304331344002136
:1005300042F8041B9A42FBD1134B144A9A60144BA5
:100540009847144B9847FEE70A4B0B4A9A42E3D26E
:100550000A4B0848181A1146043A02440028DBD016
:10056000C1F1040152F8040943F8040DCA42F9D15B
:10057000D2E700BF000000200C0940003404002036
:10058000F40400203404002000ED00E000004000EE
:10059000750740001D0740003C4B1B6B03F0030335
:1005A000032B0ED8DFE803F0021C3838384B5B69A8
:1005B00013F0800F14BF4FF400424FF4FA42354B52
:1005C0001A60324B1B6B03F07003702B55D02F4B0E
:1005D0001A6B3049C2F302120B68D3400B607047AC
:1005E0002A4B1B6A13F0807F03D02B4A294B1A60D9
:1005F000E7E72A4A274B1A60244B1B6A03F0700373
:10060000102B05D0202BDCD1234A224B1A60D8E7CF
:10061000234A204B1A60D4E71C4B1B6A13F0807FDF
:1006200018D01D4A1B4B1A60184B1B6B03F00303B9
:10063000022B164A07BF916A926AD16AD26A15489C
:10064000C1F30A41036801FB0333D2B2B3FBF2F3F7
:100650000360B6E7114A0F4B1A600C4B1B6A03F09C
:100660007003102B05D0202BDED10B4A094B1A60EA
:10067000DAE70B4A074B1A60D6E7064A13680949BE
:10068000A1FB03135B081360704700BF00040E401A
:1006900010140E4000000020001BB70000093D00B0
:1006A00000127A00ABAAAAAA124B984211D9124B97
:1006B000984213D9114B984214D9114B984215D92D
:1006C000104B984294BF4FF004220F4A0F4B1A6010
:1006D00070474FF080620D4B1A6070470C4A0B4B0D
:1006E0001A6070470B4A094B1A6070470A4A074B59
:1006F0001A607047FF2C3101FF596202FF86930395
:10070000FFB3C404FFE0F50500050004000A0E4035
:1007100000010004000200040003000408B50E4BB1
:1007200098470E480E4B98470E4B98470E4B9847EC
:1007300000220E4B1A601A460D494FF48014002017
:100740001368002BFCD0CB6B13F4801F14BF4C63D9
:100750000C631060F4E700BFA902400050140E4083
:10076000390240009D0440004D024000C8040020B2
:10077000000E0E4070B50F4E0F4D761BB61018BF11
:10078000002405D0013455F8043B9847A642F9D11E
:100790000A4E0B4D761B00F0A7F8B61018BF0024C8
:1007A00006D0013455F8043B9847A642F9D170BDF4
:1007B00070BD00BFF4084000F4084000FC08400091
:1007C000F4084000024B13B1024800F005B870472E
:1007D00000000000E5074000002301461A461846C5
:1007E00000F01EB838B50A4C0A4D641BA4100AD09C
:1007F00004F18043013B05EB8305013C55F80439C6
:100800009847002CF9D1BDE8384000F077B800BF18
:100810000C09400008094000704700BF704700BF46
:100820002DE9F8432C4D0646286898460F46914618
:10083000FFF7F2FF294B1C68D4F84831002B3ED05B
:100840005A681F2A1CDC02F1010E76B103EB82010B
:100850000124C1F88890D3F8880194402043022EE7
:10086000C3F88801C1F8088123D00232C3F804E03C
:10087000286843F82270FFF7D1FF0020BDE8F88315
:10088000174B0BB34FF4C870AFF300800346D8B1D9
:10089000D4F848210260002141600A46C4F84801AA
:1008A0004FF0010EC0F88811C0F88C11002EDCD07A
:1008B000CCE7D3F88C110C43C3F88C41D5E704F591
:1008C000A673C4F84831BBE72868FFF7A7FF4FF0CD
:1008D000FF30BDE8F88300BF30040020E40840008A
:1008E0000000000008000020F8B500BFF8BC08BCFC
:1008F0009E467047C5074000F1004000F8B500BFB4
:0C090000F8BC08BC9E467047CD004000CB
:10090C0000093D000000000000000000F40200207F
:10091C005C030020C4030020000000000000000065
:10092C0000000000000000000000000000000000BB
:10093C0000000000000000000000000000000000AB
:10094C00000000000000000000000000000000009B
:10095C00000000000000000000000000000000008B
:10096C00000000000000000000000000000000007B
:10097C00000000000000000000000000000000006B
:10098C00000000000000000000000000000000005B
:10099C00000000000000000000000000000000004B
:1009AC00000000000000000000000000000000003B
:1009BC0001000000000000000E33CDAB34126DE6D8
:1009CC00ECDE05000B000000000000000000000041
:1009DC00000000000000000000000000000000000B
:1009EC0000000000000000000000000000000000FB
:1009FC0000000000000000000000000000000000EB
:100A0C0000000000000000000000000000000000DA
:040D3C00D0040020BF
:04000005004004EDC6
:00000001FF
